{
  "contractName": "NFTCollection",
  "abi": [
    {
      "inputs": [],
      "stateMutability": "nonpayable",
      "type": "constructor"
    },
    {
      "anonymous": false,
      "inputs": [
        {
          "indexed": true,
          "internalType": "address",
          "name": "owner",
          "type": "address"
        },
        {
          "indexed": true,
          "internalType": "address",
          "name": "approved",
          "type": "address"
        },
        {
          "indexed": true,
          "internalType": "uint256",
          "name": "tokenId",
          "type": "uint256"
        }
      ],
      "name": "Approval",
      "type": "event"
    },
    {
      "anonymous": false,
      "inputs": [
        {
          "indexed": true,
          "internalType": "address",
          "name": "owner",
          "type": "address"
        },
        {
          "indexed": true,
          "internalType": "address",
          "name": "operator",
          "type": "address"
        },
        {
          "indexed": false,
          "internalType": "bool",
          "name": "approved",
          "type": "bool"
        }
      ],
      "name": "ApprovalForAll",
      "type": "event"
    },
    {
      "anonymous": false,
      "inputs": [
        {
          "indexed": true,
          "internalType": "address",
          "name": "from",
          "type": "address"
        },
        {
          "indexed": true,
          "internalType": "address",
          "name": "to",
          "type": "address"
        },
        {
          "indexed": true,
          "internalType": "uint256",
          "name": "tokenId",
          "type": "uint256"
        }
      ],
      "name": "Transfer",
      "type": "event"
    },
    {
      "inputs": [
        {
          "internalType": "address",
          "name": "",
          "type": "address"
        },
        {
          "internalType": "uint256",
          "name": "",
          "type": "uint256"
        }
      ],
      "name": "_userToken",
      "outputs": [
        {
          "internalType": "uint256",
          "name": "",
          "type": "uint256"
        }
      ],
      "stateMutability": "view",
      "type": "function",
      "constant": true
    },
    {
      "inputs": [
        {
          "internalType": "address",
          "name": "",
          "type": "address"
        },
        {
          "internalType": "uint256",
          "name": "",
          "type": "uint256"
        }
      ],
      "name": "_userTokenoffer",
      "outputs": [
        {
          "internalType": "uint256",
          "name": "",
          "type": "uint256"
        }
      ],
      "stateMutability": "view",
      "type": "function",
      "constant": true
    },
    {
      "inputs": [
        {
          "internalType": "address",
          "name": "to",
          "type": "address"
        },
        {
          "internalType": "uint256",
          "name": "tokenId",
          "type": "uint256"
        }
      ],
      "name": "approve",
      "outputs": [],
      "stateMutability": "nonpayable",
      "type": "function"
    },
    {
      "inputs": [
        {
          "internalType": "address",
          "name": "owner",
          "type": "address"
        }
      ],
      "name": "balanceOf",
      "outputs": [
        {
          "internalType": "uint256",
          "name": "",
          "type": "uint256"
        }
      ],
      "stateMutability": "view",
      "type": "function",
      "constant": true
    },
    {
      "inputs": [
        {
          "internalType": "uint256",
          "name": "tokenId",
          "type": "uint256"
        }
      ],
      "name": "getApproved",
      "outputs": [
        {
          "internalType": "address",
          "name": "",
          "type": "address"
        }
      ],
      "stateMutability": "view",
      "type": "function",
      "constant": true
    },
    {
      "inputs": [
        {
          "internalType": "address",
          "name": "owner",
          "type": "address"
        },
        {
          "internalType": "address",
          "name": "operator",
          "type": "address"
        }
      ],
      "name": "isApprovedForAll",
      "outputs": [
        {
          "internalType": "bool",
          "name": "",
          "type": "bool"
        }
      ],
      "stateMutability": "view",
      "type": "function",
      "constant": true
    },
    {
      "inputs": [],
      "name": "name",
      "outputs": [
        {
          "internalType": "string",
          "name": "",
          "type": "string"
        }
      ],
      "stateMutability": "view",
      "type": "function",
      "constant": true
    },
    {
      "inputs": [
        {
          "internalType": "uint256",
          "name": "tokenId",
          "type": "uint256"
        }
      ],
      "name": "ownerOf",
      "outputs": [
        {
          "internalType": "address",
          "name": "",
          "type": "address"
        }
      ],
      "stateMutability": "view",
      "type": "function",
      "constant": true
    },
    {
      "inputs": [
        {
          "internalType": "address",
          "name": "from",
          "type": "address"
        },
        {
          "internalType": "address",
          "name": "to",
          "type": "address"
        },
        {
          "internalType": "uint256",
          "name": "tokenId",
          "type": "uint256"
        }
      ],
      "name": "safeTransferFrom",
      "outputs": [],
      "stateMutability": "nonpayable",
      "type": "function"
    },
    {
      "inputs": [
        {
          "internalType": "address",
          "name": "from",
          "type": "address"
        },
        {
          "internalType": "address",
          "name": "to",
          "type": "address"
        },
        {
          "internalType": "uint256",
          "name": "tokenId",
          "type": "uint256"
        },
        {
          "internalType": "bytes",
          "name": "_data",
          "type": "bytes"
        }
      ],
      "name": "safeTransferFrom",
      "outputs": [],
      "stateMutability": "nonpayable",
      "type": "function"
    },
    {
      "inputs": [
        {
          "internalType": "address",
          "name": "operator",
          "type": "address"
        },
        {
          "internalType": "bool",
          "name": "approved",
          "type": "bool"
        }
      ],
      "name": "setApprovalForAll",
      "outputs": [],
      "stateMutability": "nonpayable",
      "type": "function"
    },
    {
      "inputs": [],
      "name": "symbol",
      "outputs": [
        {
          "internalType": "string",
          "name": "",
          "type": "string"
        }
      ],
      "stateMutability": "view",
      "type": "function",
      "constant": true
    },
    {
      "inputs": [
        {
          "internalType": "uint256",
          "name": "index",
          "type": "uint256"
        }
      ],
      "name": "tokenByIndex",
      "outputs": [
        {
          "internalType": "uint256",
          "name": "",
          "type": "uint256"
        }
      ],
      "stateMutability": "view",
      "type": "function",
      "constant": true
    },
    {
      "inputs": [
        {
          "internalType": "address",
          "name": "owner",
          "type": "address"
        },
        {
          "internalType": "uint256",
          "name": "index",
          "type": "uint256"
        }
      ],
      "name": "tokenOfOwnerByIndex",
      "outputs": [
        {
          "internalType": "uint256",
          "name": "",
          "type": "uint256"
        }
      ],
      "stateMutability": "view",
      "type": "function",
      "constant": true
    },
    {
      "inputs": [
        {
          "internalType": "uint256",
          "name": "",
          "type": "uint256"
        }
      ],
      "name": "tokenURIs",
      "outputs": [
        {
          "internalType": "string",
          "name": "",
          "type": "string"
        }
      ],
      "stateMutability": "view",
      "type": "function",
      "constant": true
    },
    {
      "inputs": [],
      "name": "totalSupply",
      "outputs": [
        {
          "internalType": "uint256",
          "name": "",
          "type": "uint256"
        }
      ],
      "stateMutability": "view",
      "type": "function",
      "constant": true
    },
    {
      "inputs": [
        {
          "internalType": "address",
          "name": "from",
          "type": "address"
        },
        {
          "internalType": "address",
          "name": "to",
          "type": "address"
        },
        {
          "internalType": "uint256",
          "name": "tokenId",
          "type": "uint256"
        }
      ],
      "name": "transferFrom",
      "outputs": [],
      "stateMutability": "nonpayable",
      "type": "function"
    },
    {
      "inputs": [
        {
          "internalType": "uint256",
          "name": "tokenid",
          "type": "uint256"
        },
        {
          "internalType": "address",
          "name": "myaddress",
          "type": "address"
        }
      ],
      "name": "_userToken_pop",
      "outputs": [],
      "stateMutability": "nonpayable",
      "type": "function"
    },
    {
      "inputs": [
        {
          "internalType": "uint256",
          "name": "tokenid",
          "type": "uint256"
        },
        {
          "internalType": "address",
          "name": "myaddress",
          "type": "address"
        }
      ],
      "name": "_userTokenoffer_pop",
      "outputs": [],
      "stateMutability": "nonpayable",
      "type": "function"
    },
    {
      "inputs": [
        {
          "internalType": "uint256",
          "name": "tokenid",
          "type": "uint256"
        },
        {
          "internalType": "address",
          "name": "myaddress",
          "type": "address"
        }
      ],
      "name": "_userToken_push",
      "outputs": [],
      "stateMutability": "nonpayable",
      "type": "function"
    },
    {
      "inputs": [
        {
          "internalType": "uint256",
          "name": "tokenid",
          "type": "uint256"
        },
        {
          "internalType": "address",
          "name": "myaddress",
          "type": "address"
        }
      ],
      "name": "_userTokenoffer_push",
      "outputs": [],
      "stateMutability": "nonpayable",
      "type": "function"
    },
    {
      "inputs": [
        {
          "internalType": "bytes4",
          "name": "interfaceId",
          "type": "bytes4"
        }
      ],
      "name": "supportsInterface",
      "outputs": [
        {
          "internalType": "bool",
          "name": "",
          "type": "bool"
        }
      ],
      "stateMutability": "view",
      "type": "function",
      "constant": true
    },
    {
      "inputs": [
        {
          "internalType": "uint256",
          "name": "tokenId",
          "type": "uint256"
        }
      ],
      "name": "tokenURI",
      "outputs": [
        {
          "internalType": "string",
          "name": "",
          "type": "string"
        }
      ],
      "stateMutability": "view",
      "type": "function",
      "constant": true
    },
    {
      "inputs": [
        {
          "internalType": "string",
          "name": "_tokenURI",
          "type": "string"
        }
      ],
      "name": "safeMint",
      "outputs": [],
      "stateMutability": "nonpayable",
      "type": "function"
    }
  ],
  "bytecode": "0x60806040523480156200001157600080fd5b506040518060400160405280601081526020017f73696e737520436f6c6c656374696f6e000000000000000000000000000000008152506040518060400160405280600581526020017f53494e5355000000000000000000000000000000000000000000000000000000815250816000908051906020019062000096929190620000b8565b508060019080519060200190620000af929190620000b8565b505050620001cc565b828054620000c69062000197565b90600052602060002090601f016020900481019282620000ea576000855562000136565b82601f106200010557805160ff191683800117855562000136565b8280016001018555821562000136579182015b828111156200013557825182559160200191906001019062000118565b5b50905062000145919062000149565b5090565b5b80821115620001645760008160009055506001016200014a565b5090565b7f4e487b7100000000000000000000000000000000000000000000000000000000600052602260045260246000fd5b60006002820490506001821680620001b057607f821691505b602082108103620001c657620001c562000168565b5b50919050565b6138e680620001dc6000396000f3fe608060405234801561001057600080fd5b50600436106101585760003560e01c80636352211e116100c3578063a73ee2de1161007c578063a73ee2de146103fb578063a8fdce6514610417578063b88d4fde14610433578063c87b56dd1461044f578063e985e9c51461047f578063fd4a923d146104af57610158565b80636352211e14610315578063695850fb146103455780636c8b703f1461036157806370a082311461039157806395d89b41146103c1578063a22cb465146103df57610158565b806323b872dd1161011557806323b872dd1461023157806325e79e831461024d5780632f745c59146102695780633bfc33c51461029957806342842e0e146102c95780634f6ccce7146102e557610158565b806301ffc9a71461015d57806306fdde031461018d578063081812fc146101ab578063095ea7b3146101db57806318160ddd146101f757806318dc0cd814610215575b600080fd5b61017760048036038101906101729190612620565b6104df565b6040516101849190612668565b60405180910390f35b6101956104f1565b6040516101a2919061271c565b60405180910390f35b6101c560048036038101906101c09190612774565b610583565b6040516101d291906127e2565b60405180910390f35b6101f560048036038101906101f09190612829565b610608565b005b6101ff61071f565b60405161020c9190612878565b60405180910390f35b61022f600480360381019061022a9190612893565b61072c565b005b61024b600480360381019061024691906128d3565b610990565b005b61026760048036038101906102629190612893565b6109f0565b005b610283600480360381019061027e9190612829565b610c54565b6040516102909190612878565b60405180910390f35b6102b360048036038101906102ae9190612829565b610cf9565b6040516102c09190612878565b60405180910390f35b6102e360048036038101906102de91906128d3565b610d2a565b005b6102ff60048036038101906102fa9190612774565b610d4a565b60405161030c9190612878565b60405180910390f35b61032f600480360381019061032a9190612774565b610dbb565b60405161033c91906127e2565b60405180910390f35b61035f600480360381019061035a9190612a5b565b610e6c565b005b61037b60048036038101906103769190612774565b610ff1565b604051610388919061271c565b60405180910390f35b6103ab60048036038101906103a69190612aa4565b61109d565b6040516103b89190612878565b60405180910390f35b6103c9611154565b6040516103d6919061271c565b60405180910390f35b6103f960048036038101906103f49190612afd565b6111e6565b005b61041560048036038101906104109190612893565b6111fc565b005b610431600480360381019061042c9190612893565b611266565b005b61044d60048036038101906104489190612bde565b6112d0565b005b61046960048036038101906104649190612774565b611332565b604051610476919061271c565b60405180910390f35b61049960048036038101906104949190612c61565b61141f565b6040516104a69190612668565b60405180910390f35b6104c960048036038101906104c49190612829565b6114b3565b6040516104d69190612878565b60405180910390f35b60006104ea826114e4565b9050919050565b60606000805461050090612cd0565b80601f016020809104026020016040519081016040528092919081815260200182805461052c90612cd0565b80156105795780601f1061054e57610100808354040283529160200191610579565b820191906000526020600020905b81548152906001019060200180831161055c57829003601f168201915b5050505050905090565b600061058e8261155e565b6105cd576040517f08c379a00000000000000000000000000000000000000000000000000000000081526004016105c490612d73565b60405180910390fd5b6004600083815260200190815260200160002060009054906101000a900473ffffffffffffffffffffffffffffffffffffffff169050919050565b600061061382610dbb565b90508073ffffffffffffffffffffffffffffffffffffffff168373ffffffffffffffffffffffffffffffffffffffff1603610683576040517f08c379a000000000000000000000000000000000000000000000000000000000815260040161067a90612e05565b60405180910390fd5b8073ffffffffffffffffffffffffffffffffffffffff166106a26115ca565b73ffffffffffffffffffffffffffffffffffffffff1614806106d157506106d0816106cb6115ca565b61141f565b5b610710576040517f08c379a000000000000000000000000000000000000000000000000000000000815260040161070790612e97565b60405180910390fd5b61071a83836115d2565b505050565b6000600880549050905090565b60005b600e60008373ffffffffffffffffffffffffffffffffffffffff1673ffffffffffffffffffffffffffffffffffffffff168152602001908152602001600020805490508110156107ef5782600e60008473ffffffffffffffffffffffffffffffffffffffff1673ffffffffffffffffffffffffffffffffffffffff16815260200190815260200160002082815481106107cb576107ca612eb7565b5b906000526020600020015403156107ef5780806107e790612f15565b91505061072f565b60008190505b6001600e60008573ffffffffffffffffffffffffffffffffffffffff1673ffffffffffffffffffffffffffffffffffffffff168152602001908152602001600020805490506108449190612f5d565b81101561092557600e60008473ffffffffffffffffffffffffffffffffffffffff1673ffffffffffffffffffffffffffffffffffffffff1681526020019081526020016000206001826108979190612f91565b815481106108a8576108a7612eb7565b5b9060005260206000200154600e60008573ffffffffffffffffffffffffffffffffffffffff1673ffffffffffffffffffffffffffffffffffffffff168152602001908152602001600020828154811061090457610903612eb7565b5b9060005260206000200181905550808061091d90612f15565b9150506107f5565b50600e60008373ffffffffffffffffffffffffffffffffffffffff1673ffffffffffffffffffffffffffffffffffffffff16815260200190815260200160002080548061097557610974612fe7565b5b60019003818190600052602060002001600090559055505050565b6109a161099b6115ca565b8261168b565b6109e0576040517f08c379a00000000000000000000000000000000000000000000000000000000081526004016109d790613088565b60405180910390fd5b6109eb838383611769565b505050565b60005b600d60008373ffffffffffffffffffffffffffffffffffffffff1673ffffffffffffffffffffffffffffffffffffffff16815260200190815260200160002080549050811015610ab35782600d60008473ffffffffffffffffffffffffffffffffffffffff1673ffffffffffffffffffffffffffffffffffffffff1681526020019081526020016000208281548110610a8f57610a8e612eb7565b5b90600052602060002001540315610ab3578080610aab90612f15565b9150506109f3565b60008190505b6001600d60008573ffffffffffffffffffffffffffffffffffffffff1673ffffffffffffffffffffffffffffffffffffffff16815260200190815260200160002080549050610b089190612f5d565b811015610be957600d60008473ffffffffffffffffffffffffffffffffffffffff1673ffffffffffffffffffffffffffffffffffffffff168152602001908152602001600020600182610b5b9190612f91565b81548110610b6c57610b6b612eb7565b5b9060005260206000200154600d60008573ffffffffffffffffffffffffffffffffffffffff1673ffffffffffffffffffffffffffffffffffffffff1681526020019081526020016000208281548110610bc857610bc7612eb7565b5b90600052602060002001819055508080610be190612f15565b915050610ab9565b50600d60008373ffffffffffffffffffffffffffffffffffffffff1673ffffffffffffffffffffffffffffffffffffffff168152602001908152602001600020805480610c3957610c38612fe7565b5b60019003818190600052602060002001600090559055505050565b6000610c5f8361109d565b8210610ca0576040517f08c379a0000000000000000000000000000000000000000000000000000000008152600401610c979061311a565b60405180910390fd5b600660008473ffffffffffffffffffffffffffffffffffffffff1673ffffffffffffffffffffffffffffffffffffffff168152602001908152602001600020600083815260200190815260200160002054905092915050565b600e6020528160005260406000208181548110610d1557600080fd5b90600052602060002001600091509150505481565b610d45838383604051806020016040528060008152506112d0565b505050565b6000610d5461071f565b8210610d95576040517f08c379a0000000000000000000000000000000000000000000000000000000008152600401610d8c906131ac565b60405180910390fd5b60088281548110610da957610da8612eb7565b5b90600052602060002001549050919050565b6000806002600084815260200190815260200160002060009054906101000a900473ffffffffffffffffffffffffffffffffffffffff169050600073ffffffffffffffffffffffffffffffffffffffff168173ffffffffffffffffffffffffffffffffffffffff1603610e63576040517f08c379a0000000000000000000000000000000000000000000000000000000008152600401610e5a9061323e565b60405180910390fd5b80915050919050565b600b81604051610e7c919061329a565b908152602001604051809103902060009054906101000a900460ff1615610ed8576040517f08c379a0000000000000000000000000000000000000000000000000000000008152600401610ecf906132fd565b60405180910390fd5b600a81908060018154018082558091505060019003906000526020600020016000909190919091509080519060200190610f13929190612511565b506000600a80549050905081600c60008381526020019081526020016000209080519060200190610f45929190612511565b50610f5033826119cf565b6001600b83604051610f62919061329a565b908152602001604051809103902060006101000a81548160ff021916908315150217905550600d60003373ffffffffffffffffffffffffffffffffffffffff1673ffffffffffffffffffffffffffffffffffffffff1681526020019081526020016000208190806001815401808255809150506001900390600052602060002001600090919091909150555050565b600a818154811061100157600080fd5b90600052602060002001600091509050805461101c90612cd0565b80601f016020809104026020016040519081016040528092919081815260200182805461104890612cd0565b80156110955780601f1061106a57610100808354040283529160200191611095565b820191906000526020600020905b81548152906001019060200180831161107857829003601f168201915b505050505081565b60008073ffffffffffffffffffffffffffffffffffffffff168273ffffffffffffffffffffffffffffffffffffffff160361110d576040517f08c379a00000000000000000000000000000000000000000000000000000000081526004016111049061338f565b60405180910390fd5b600360008373ffffffffffffffffffffffffffffffffffffffff1673ffffffffffffffffffffffffffffffffffffffff168152602001908152602001600020549050919050565b60606001805461116390612cd0565b80601f016020809104026020016040519081016040528092919081815260200182805461118f90612cd0565b80156111dc5780601f106111b1576101008083540402835291602001916111dc565b820191906000526020600020905b8154815290600101906020018083116111bf57829003601f168201915b5050505050905090565b6111f86111f16115ca565b83836119ed565b5050565b600d60008273ffffffffffffffffffffffffffffffffffffffff1673ffffffffffffffffffffffffffffffffffffffff1681526020019081526020016000208290806001815401808255809150506001900390600052602060002001600090919091909150555050565b600e60008273ffffffffffffffffffffffffffffffffffffffff1673ffffffffffffffffffffffffffffffffffffffff1681526020019081526020016000208290806001815401808255809150506001900390600052602060002001600090919091909150555050565b6112e16112db6115ca565b8361168b565b611320576040517f08c379a000000000000000000000000000000000000000000000000000000000815260040161131790613088565b60405180910390fd5b61132c84848484611b59565b50505050565b606061133d8261155e565b61137c576040517f08c379a000000000000000000000000000000000000000000000000000000000815260040161137390613421565b60405180910390fd5b600c6000838152602001908152602001600020805461139a90612cd0565b80601f01602080910402602001604051908101604052809291908181526020018280546113c690612cd0565b80156114135780601f106113e857610100808354040283529160200191611413565b820191906000526020600020905b8154815290600101906020018083116113f657829003601f168201915b50505050509050919050565b6000600560008473ffffffffffffffffffffffffffffffffffffffff1673ffffffffffffffffffffffffffffffffffffffff16815260200190815260200160002060008373ffffffffffffffffffffffffffffffffffffffff1673ffffffffffffffffffffffffffffffffffffffff16815260200190815260200160002060009054906101000a900460ff16905092915050565b600d60205281600052604060002081815481106114cf57600080fd5b90600052602060002001600091509150505481565b60007f780e9d63000000000000000000000000000000000000000000000000000000007bffffffffffffffffffffffffffffffffffffffffffffffffffffffff1916827bffffffffffffffffffffffffffffffffffffffffffffffffffffffff19161480611557575061155682611bb5565b5b9050919050565b60008073ffffffffffffffffffffffffffffffffffffffff166002600084815260200190815260200160002060009054906101000a900473ffffffffffffffffffffffffffffffffffffffff1673ffffffffffffffffffffffffffffffffffffffff1614159050919050565b600033905090565b816004600083815260200190815260200160002060006101000a81548173ffffffffffffffffffffffffffffffffffffffff021916908373ffffffffffffffffffffffffffffffffffffffff160217905550808273ffffffffffffffffffffffffffffffffffffffff1661164583610dbb565b73ffffffffffffffffffffffffffffffffffffffff167f8c5be1e5ebec7d5bd14f71427d1e84f3dd0314c0f7b2291e5b200ac8c7c3b92560405160405180910390a45050565b60006116968261155e565b6116d5576040517f08c379a00000000000000000000000000000000000000000000000000000000081526004016116cc906134b3565b60405180910390fd5b60006116e083610dbb565b90508073ffffffffffffffffffffffffffffffffffffffff168473ffffffffffffffffffffffffffffffffffffffff1614806117225750611721818561141f565b5b8061176057508373ffffffffffffffffffffffffffffffffffffffff1661174884610583565b73ffffffffffffffffffffffffffffffffffffffff16145b91505092915050565b8273ffffffffffffffffffffffffffffffffffffffff1661178982610dbb565b73ffffffffffffffffffffffffffffffffffffffff16146117df576040517f08c379a00000000000000000000000000000000000000000000000000000000081526004016117d690613545565b60405180910390fd5b600073ffffffffffffffffffffffffffffffffffffffff168273ffffffffffffffffffffffffffffffffffffffff160361184e576040517f08c379a0000000000000000000000000000000000000000000000000000000008152600401611845906135d7565b60405180910390fd5b611859838383611c97565b6118646000826115d2565b6001600360008573ffffffffffffffffffffffffffffffffffffffff1673ffffffffffffffffffffffffffffffffffffffff16815260200190815260200160002060008282546118b49190612f5d565b925050819055506001600360008473ffffffffffffffffffffffffffffffffffffffff1673ffffffffffffffffffffffffffffffffffffffff168152602001908152602001600020600082825461190b9190612f91565b92505081905550816002600083815260200190815260200160002060006101000a81548173ffffffffffffffffffffffffffffffffffffffff021916908373ffffffffffffffffffffffffffffffffffffffff160217905550808273ffffffffffffffffffffffffffffffffffffffff168473ffffffffffffffffffffffffffffffffffffffff167fddf252ad1be2c89b69c2b068fc378daa952ba7f163c4a11628f55a4df523b3ef60405160405180910390a46119ca838383611ca7565b505050565b6119e9828260405180602001604052806000815250611cac565b5050565b8173ffffffffffffffffffffffffffffffffffffffff168373ffffffffffffffffffffffffffffffffffffffff1603611a5b576040517f08c379a0000000000000000000000000000000000000000000000000000000008152600401611a5290613643565b60405180910390fd5b80600560008573ffffffffffffffffffffffffffffffffffffffff1673ffffffffffffffffffffffffffffffffffffffff16815260200190815260200160002060008473ffffffffffffffffffffffffffffffffffffffff1673ffffffffffffffffffffffffffffffffffffffff16815260200190815260200160002060006101000a81548160ff0219169083151502179055508173ffffffffffffffffffffffffffffffffffffffff168373ffffffffffffffffffffffffffffffffffffffff167f17307eab39ab6107e8899845ad3d59bd9653f200f220920489ca2b5937696c3183604051611b4c9190612668565b60405180910390a3505050565b611b64848484611769565b611b7084848484611d07565b611baf576040517f08c379a0000000000000000000000000000000000000000000000000000000008152600401611ba6906136d5565b60405180910390fd5b50505050565b60007f80ac58cd000000000000000000000000000000000000000000000000000000007bffffffffffffffffffffffffffffffffffffffffffffffffffffffff1916827bffffffffffffffffffffffffffffffffffffffffffffffffffffffff19161480611c8057507f5b5e139f000000000000000000000000000000000000000000000000000000007bffffffffffffffffffffffffffffffffffffffffffffffffffffffff1916827bffffffffffffffffffffffffffffffffffffffffffffffffffffffff1916145b80611c905750611c8f82611e8e565b5b9050919050565b611ca2838383611ef8565b505050565b505050565b611cb6838361200a565b611cc36000848484611d07565b611d02576040517f08c379a0000000000000000000000000000000000000000000000000000000008152600401611cf9906136d5565b60405180910390fd5b505050565b6000611d288473ffffffffffffffffffffffffffffffffffffffff166121e3565b15611e81578373ffffffffffffffffffffffffffffffffffffffff1663150b7a02611d516115ca565b8786866040518563ffffffff1660e01b8152600401611d73949392919061374a565b6020604051808303816000875af1925050508015611daf57506040513d601f19601f82011682018060405250810190611dac91906137ab565b60015b611e31573d8060008114611ddf576040519150601f19603f3d011682016040523d82523d6000602084013e611de4565b606091505b506000815103611e29576040517f08c379a0000000000000000000000000000000000000000000000000000000008152600401611e20906136d5565b60405180910390fd5b805181602001fd5b63150b7a0260e01b7bffffffffffffffffffffffffffffffffffffffffffffffffffffffff1916817bffffffffffffffffffffffffffffffffffffffffffffffffffffffff191614915050611e86565b600190505b949350505050565b60007f01ffc9a7000000000000000000000000000000000000000000000000000000007bffffffffffffffffffffffffffffffffffffffffffffffffffffffff1916827bffffffffffffffffffffffffffffffffffffffffffffffffffffffff1916149050919050565b611f03838383612206565b600073ffffffffffffffffffffffffffffffffffffffff168373ffffffffffffffffffffffffffffffffffffffff1603611f4557611f408161220b565b611f84565b8173ffffffffffffffffffffffffffffffffffffffff168373ffffffffffffffffffffffffffffffffffffffff1614611f8357611f828382612254565b5b5b600073ffffffffffffffffffffffffffffffffffffffff168273ffffffffffffffffffffffffffffffffffffffff1603611fc657611fc1816123c1565b612005565b8273ffffffffffffffffffffffffffffffffffffffff168273ffffffffffffffffffffffffffffffffffffffff1614612004576120038282612492565b5b5b505050565b600073ffffffffffffffffffffffffffffffffffffffff168273ffffffffffffffffffffffffffffffffffffffff1603612079576040517f08c379a000000000000000000000000000000000000000000000000000000000815260040161207090613824565b60405180910390fd5b6120828161155e565b156120c2576040517f08c379a00000000000000000000000000000000000000000000000000000000081526004016120b990613890565b60405180910390fd5b6120ce60008383611c97565b6001600360008473ffffffffffffffffffffffffffffffffffffffff1673ffffffffffffffffffffffffffffffffffffffff168152602001908152602001600020600082825461211e9190612f91565b92505081905550816002600083815260200190815260200160002060006101000a81548173ffffffffffffffffffffffffffffffffffffffff021916908373ffffffffffffffffffffffffffffffffffffffff160217905550808273ffffffffffffffffffffffffffffffffffffffff16600073ffffffffffffffffffffffffffffffffffffffff167fddf252ad1be2c89b69c2b068fc378daa952ba7f163c4a11628f55a4df523b3ef60405160405180910390a46121df60008383611ca7565b5050565b6000808273ffffffffffffffffffffffffffffffffffffffff163b119050919050565b505050565b6008805490506009600083815260200190815260200160002081905550600881908060018154018082558091505060019003906000526020600020016000909190919091505550565b600060016122618461109d565b61226b9190612f5d565b9050600060076000848152602001908152602001600020549050818114612350576000600660008673ffffffffffffffffffffffffffffffffffffffff1673ffffffffffffffffffffffffffffffffffffffff168152602001908152602001600020600084815260200190815260200160002054905080600660008773ffffffffffffffffffffffffffffffffffffffff1673ffffffffffffffffffffffffffffffffffffffff168152602001908152602001600020600084815260200190815260200160002081905550816007600083815260200190815260200160002081905550505b6007600084815260200190815260200160002060009055600660008573ffffffffffffffffffffffffffffffffffffffff1673ffffffffffffffffffffffffffffffffffffffff16815260200190815260200160002060008381526020019081526020016000206000905550505050565b600060016008805490506123d59190612f5d565b905060006009600084815260200190815260200160002054905060006008838154811061240557612404612eb7565b5b90600052602060002001549050806008838154811061242757612426612eb7565b5b90600052602060002001819055508160096000838152602001908152602001600020819055506009600085815260200190815260200160002060009055600880548061247657612475612fe7565b5b6001900381819060005260206000200160009055905550505050565b600061249d8361109d565b905081600660008573ffffffffffffffffffffffffffffffffffffffff1673ffffffffffffffffffffffffffffffffffffffff168152602001908152602001600020600083815260200190815260200160002081905550806007600084815260200190815260200160002081905550505050565b82805461251d90612cd0565b90600052602060002090601f01602090048101928261253f5760008555612586565b82601f1061255857805160ff1916838001178555612586565b82800160010185558215612586579182015b8281111561258557825182559160200191906001019061256a565b5b5090506125939190612597565b5090565b5b808211156125b0576000816000905550600101612598565b5090565b6000604051905090565b600080fd5b600080fd5b60007fffffffff0000000000000000000000000000000000000000000000000000000082169050919050565b6125fd816125c8565b811461260857600080fd5b50565b60008135905061261a816125f4565b92915050565b600060208284031215612636576126356125be565b5b60006126448482850161260b565b91505092915050565b60008115159050919050565b6126628161264d565b82525050565b600060208201905061267d6000830184612659565b92915050565b600081519050919050565b600082825260208201905092915050565b60005b838110156126bd5780820151818401526020810190506126a2565b838111156126cc576000848401525b50505050565b6000601f19601f8301169050919050565b60006126ee82612683565b6126f8818561268e565b935061270881856020860161269f565b612711816126d2565b840191505092915050565b6000602082019050818103600083015261273681846126e3565b905092915050565b6000819050919050565b6127518161273e565b811461275c57600080fd5b50565b60008135905061276e81612748565b92915050565b60006020828403121561278a576127896125be565b5b60006127988482850161275f565b91505092915050565b600073ffffffffffffffffffffffffffffffffffffffff82169050919050565b60006127cc826127a1565b9050919050565b6127dc816127c1565b82525050565b60006020820190506127f760008301846127d3565b92915050565b612806816127c1565b811461281157600080fd5b50565b600081359050612823816127fd565b92915050565b600080604083850312156128405761283f6125be565b5b600061284e85828601612814565b925050602061285f8582860161275f565b9150509250929050565b6128728161273e565b82525050565b600060208201905061288d6000830184612869565b92915050565b600080604083850312156128aa576128a96125be565b5b60006128b88582860161275f565b92505060206128c985828601612814565b9150509250929050565b6000806000606084860312156128ec576128eb6125be565b5b60006128fa86828701612814565b935050602061290b86828701612814565b925050604061291c8682870161275f565b9150509250925092565b600080fd5b600080fd5b7f4e487b7100000000000000000000000000000000000000000000000000000000600052604160045260246000fd5b612968826126d2565b810181811067ffffffffffffffff8211171561298757612986612930565b5b80604052505050565b600061299a6125b4565b90506129a6828261295f565b919050565b600067ffffffffffffffff8211156129c6576129c5612930565b5b6129cf826126d2565b9050602081019050919050565b82818337600083830152505050565b60006129fe6129f9846129ab565b612990565b905082815260208101848484011115612a1a57612a1961292b565b5b612a258482856129dc565b509392505050565b600082601f830112612a4257612a41612926565b5b8135612a528482602086016129eb565b91505092915050565b600060208284031215612a7157612a706125be565b5b600082013567ffffffffffffffff811115612a8f57612a8e6125c3565b5b612a9b84828501612a2d565b91505092915050565b600060208284031215612aba57612ab96125be565b5b6000612ac884828501612814565b91505092915050565b612ada8161264d565b8114612ae557600080fd5b50565b600081359050612af781612ad1565b92915050565b60008060408385031215612b1457612b136125be565b5b6000612b2285828601612814565b9250506020612b3385828601612ae8565b9150509250929050565b600067ffffffffffffffff821115612b5857612b57612930565b5b612b61826126d2565b9050602081019050919050565b6000612b81612b7c84612b3d565b612990565b905082815260208101848484011115612b9d57612b9c61292b565b5b612ba88482856129dc565b509392505050565b600082601f830112612bc557612bc4612926565b5b8135612bd5848260208601612b6e565b91505092915050565b60008060008060808587031215612bf857612bf76125be565b5b6000612c0687828801612814565b9450506020612c1787828801612814565b9350506040612c288782880161275f565b925050606085013567ffffffffffffffff811115612c4957612c486125c3565b5b612c5587828801612bb0565b91505092959194509250565b60008060408385031215612c7857612c776125be565b5b6000612c8685828601612814565b9250506020612c9785828601612814565b9150509250929050565b7f4e487b7100000000000000000000000000000000000000000000000000000000600052602260045260246000fd5b60006002820490506001821680612ce857607f821691505b602082108103612cfb57612cfa612ca1565b5b50919050565b7f4552433732313a20617070726f76656420717565727920666f72206e6f6e657860008201527f697374656e7420746f6b656e0000000000000000000000000000000000000000602082015250565b6000612d5d602c8361268e565b9150612d6882612d01565b604082019050919050565b60006020820190508181036000830152612d8c81612d50565b9050919050565b7f4552433732313a20617070726f76616c20746f2063757272656e74206f776e6560008201527f7200000000000000000000000000000000000000000000000000000000000000602082015250565b6000612def60218361268e565b9150612dfa82612d93565b604082019050919050565b60006020820190508181036000830152612e1e81612de2565b9050919050565b7f4552433732313a20617070726f76652063616c6c6572206973206e6f74206f7760008201527f6e6572206e6f7220617070726f76656420666f7220616c6c0000000000000000602082015250565b6000612e8160388361268e565b9150612e8c82612e25565b604082019050919050565b60006020820190508181036000830152612eb081612e74565b9050919050565b7f4e487b7100000000000000000000000000000000000000000000000000000000600052603260045260246000fd5b7f4e487b7100000000000000000000000000000000000000000000000000000000600052601160045260246000fd5b6000612f208261273e565b91507fffffffffffffffffffffffffffffffffffffffffffffffffffffffffffffffff8203612f5257612f51612ee6565b5b600182019050919050565b6000612f688261273e565b9150612f738361273e565b925082821015612f8657612f85612ee6565b5b828203905092915050565b6000612f9c8261273e565b9150612fa78361273e565b9250827fffffffffffffffffffffffffffffffffffffffffffffffffffffffffffffffff03821115612fdc57612fdb612ee6565b5b828201905092915050565b7f4e487b7100000000000000000000000000000000000000000000000000000000600052603160045260246000fd5b7f4552433732313a207472616e736665722063616c6c6572206973206e6f74206f60008201527f776e6572206e6f7220617070726f766564000000000000000000000000000000602082015250565b600061307260318361268e565b915061307d82613016565b604082019050919050565b600060208201905081810360008301526130a181613065565b9050919050565b7f455243373231456e756d657261626c653a206f776e657220696e646578206f7560008201527f74206f6620626f756e6473000000000000000000000000000000000000000000602082015250565b6000613104602b8361268e565b915061310f826130a8565b604082019050919050565b60006020820190508181036000830152613133816130f7565b9050919050565b7f455243373231456e756d657261626c653a20676c6f62616c20696e646578206f60008201527f7574206f6620626f756e64730000000000000000000000000000000000000000602082015250565b6000613196602c8361268e565b91506131a18261313a565b604082019050919050565b600060208201905081810360008301526131c581613189565b9050919050565b7f4552433732313a206f776e657220717565727920666f72206e6f6e657869737460008201527f656e7420746f6b656e0000000000000000000000000000000000000000000000602082015250565b600061322860298361268e565b9150613233826131cc565b604082019050919050565b600060208201905081810360008301526132578161321b565b9050919050565b600081905092915050565b600061327482612683565b61327e818561325e565b935061328e81856020860161269f565b80840191505092915050565b60006132a68284613269565b915081905092915050565b7f54686520746f6b656e205552492073686f756c6420626520756e697175650000600082015250565b60006132e7601e8361268e565b91506132f2826132b1565b602082019050919050565b60006020820190508181036000830152613316816132da565b9050919050565b7f4552433732313a2062616c616e636520717565727920666f7220746865207a6560008201527f726f206164647265737300000000000000000000000000000000000000000000602082015250565b6000613379602a8361268e565b91506133848261331d565b604082019050919050565b600060208201905081810360008301526133a88161336c565b9050919050565b7f4552433732314d657461646174613a2055524920717565727920666f72206e6f60008201527f6e6578697374656e7420746f6b656e0000000000000000000000000000000000602082015250565b600061340b602f8361268e565b9150613416826133af565b604082019050919050565b6000602082019050818103600083015261343a816133fe565b9050919050565b7f4552433732313a206f70657261746f7220717565727920666f72206e6f6e657860008201527f697374656e7420746f6b656e0000000000000000000000000000000000000000602082015250565b600061349d602c8361268e565b91506134a882613441565b604082019050919050565b600060208201905081810360008301526134cc81613490565b9050919050565b7f4552433732313a207472616e736665722066726f6d20696e636f72726563742060008201527f6f776e6572000000000000000000000000000000000000000000000000000000602082015250565b600061352f60258361268e565b915061353a826134d3565b604082019050919050565b6000602082019050818103600083015261355e81613522565b9050919050565b7f4552433732313a207472616e7366657220746f20746865207a65726f2061646460008201527f7265737300000000000000000000000000000000000000000000000000000000602082015250565b60006135c160248361268e565b91506135cc82613565565b604082019050919050565b600060208201905081810360008301526135f0816135b4565b9050919050565b7f4552433732313a20617070726f766520746f2063616c6c657200000000000000600082015250565b600061362d60198361268e565b9150613638826135f7565b602082019050919050565b6000602082019050818103600083015261365c81613620565b9050919050565b7f4552433732313a207472616e7366657220746f206e6f6e20455243373231526560008201527f63656976657220696d706c656d656e7465720000000000000000000000000000602082015250565b60006136bf60328361268e565b91506136ca82613663565b604082019050919050565b600060208201905081810360008301526136ee816136b2565b9050919050565b600081519050919050565b600082825260208201905092915050565b600061371c826136f5565b6137268185613700565b935061373681856020860161269f565b61373f816126d2565b840191505092915050565b600060808201905061375f60008301876127d3565b61376c60208301866127d3565b6137796040830185612869565b818103606083015261378b8184613711565b905095945050505050565b6000815190506137a5816125f4565b92915050565b6000602082840312156137c1576137c06125be565b5b60006137cf84828501613796565b91505092915050565b7f4552433732313a206d696e7420746f20746865207a65726f2061646472657373600082015250565b600061380e60208361268e565b9150613819826137d8565b602082019050919050565b6000602082019050818103600083015261383d81613801565b9050919050565b7f4552433732313a20746f6b656e20616c7265616479206d696e74656400000000600082015250565b600061387a601c8361268e565b915061388582613844565b602082019050919050565b600060208201905081810360008301526138a98161386d565b905091905056fea264697066735822122029ca1bfca33b1812bf0d545c2c0d524117d7948b0871a660af1ad0a9153483a564736f6c634300080e0033",
  "immutableReferences": {},
  "source": "// SPDX-License-Identifier: MIT\r\npragma solidity ^0.8.0;\r\n\r\nimport \"@openzeppelin/contracts/token/ERC721/ERC721.sol\";\r\nimport \"@openzeppelin/contracts/token/ERC721/extensions/ERC721Enumerable.sol\";\r\n\r\ncontract NFTCollection is ERC721, ERC721Enumerable {\r\n  string[] public tokenURIs;\r\n  mapping(string => bool) _tokenURIExists;\r\n  mapping(uint => string) _tokenIdToTokenURI;\r\n\r\n  mapping(address=>uint[]) public _userToken;\r\n  mapping(address=>uint[]) public _userTokenoffer;\r\n  \r\n  function _userToken_pop(uint tokenid ,address myaddress) public{\r\n      uint j=0;\r\n      while(j<_userToken[myaddress].length){\r\n          if(_userToken[myaddress][j]==tokenid){\r\n              break;\r\n          }\r\n          j++;\r\n      }\r\n      for(uint i=j; i<_userToken[myaddress].length-1;i++){\r\n          _userToken[myaddress][i]=_userToken[myaddress][i+1];\r\n      }\r\n      _userToken[myaddress].pop();\r\n  }\r\n  function _userTokenoffer_pop(uint tokenid ,address myaddress) public{\r\n      uint j=0;\r\n      while(j<_userTokenoffer[myaddress].length){\r\n          if(_userTokenoffer[myaddress][j]==tokenid){\r\n              break;\r\n          }\r\n          j++;\r\n      }\r\n      for(uint i=j; i<_userTokenoffer[myaddress].length-1;i++){\r\n          _userTokenoffer[myaddress][i]=_userTokenoffer[myaddress][i+1];\r\n      }\r\n      _userTokenoffer[myaddress].pop();\r\n  }\r\n  function _userToken_push(uint tokenid, address myaddress) public{\r\n    _userToken[myaddress].push(tokenid);\r\n  }\r\n  function _userTokenoffer_push(uint tokenid, address myaddress) public{\r\n    _userTokenoffer[myaddress].push(tokenid);\r\n  }\r\n\r\n  constructor() \r\n    ERC721(\"sinsu Collection\", \"SINSU\") \r\n  {\r\n  }\r\n\r\n  function _beforeTokenTransfer(address from, address to, uint256 tokenId) internal override(ERC721, ERC721Enumerable) {\r\n    super._beforeTokenTransfer(from, to, tokenId);\r\n  }\r\n\r\n  function supportsInterface(bytes4 interfaceId) public view override(ERC721, ERC721Enumerable) returns (bool) {\r\n    return super.supportsInterface(interfaceId);\r\n  }\r\n\r\n  function tokenURI(uint256 tokenId) public override view returns (string memory) {\r\n    require(_exists(tokenId), 'ERC721Metadata: URI query for nonexistent token');\r\n    return _tokenIdToTokenURI[tokenId];\r\n  }\r\n\r\n  function safeMint(string memory _tokenURI) public {\r\n      require(!_tokenURIExists[_tokenURI], 'The token URI should be unique');\r\n      tokenURIs.push(_tokenURI);    \r\n      uint _id = tokenURIs.length;\r\n      _tokenIdToTokenURI[_id] = _tokenURI;\r\n      _safeMint(msg.sender, _id);\r\n      _tokenURIExists[_tokenURI] = true;\r\n      _userToken[msg.sender].push(_id);\r\n  }\r\n}",
  "sourcePath": "C:\\sinsu\\nft_react\\nuron-nextjs\\truffle\\contracts\\NFTCollection.sol",
  "compiler": {
    "name": "solc",
    "version": "0.8.14+commit.80d49f37.Emscripten.clang"
  },
  "schemaVersion": "3.4.7",
  "updatedAt": "2022-05-30T01:37:04.488Z",
  "networkType": "ethereum",
  "devdoc": {
    "kind": "dev",
    "methods": {
      "approve(address,uint256)": {
        "details": "See {IERC721-approve}."
      },
      "balanceOf(address)": {
        "details": "See {IERC721-balanceOf}."
      },
      "getApproved(uint256)": {
        "details": "See {IERC721-getApproved}."
      },
      "isApprovedForAll(address,address)": {
        "details": "See {IERC721-isApprovedForAll}."
      },
      "name()": {
        "details": "See {IERC721Metadata-name}."
      },
      "ownerOf(uint256)": {
        "details": "See {IERC721-ownerOf}."
      },
      "safeTransferFrom(address,address,uint256)": {
        "details": "See {IERC721-safeTransferFrom}."
      },
      "safeTransferFrom(address,address,uint256,bytes)": {
        "details": "See {IERC721-safeTransferFrom}."
      },
      "setApprovalForAll(address,bool)": {
        "details": "See {IERC721-setApprovalForAll}."
      },
      "symbol()": {
        "details": "See {IERC721Metadata-symbol}."
      },
      "tokenByIndex(uint256)": {
        "details": "See {IERC721Enumerable-tokenByIndex}."
      },
      "tokenOfOwnerByIndex(address,uint256)": {
        "details": "See {IERC721Enumerable-tokenOfOwnerByIndex}."
      },
      "tokenURI(uint256)": {
        "details": "See {IERC721Metadata-tokenURI}."
      },
      "totalSupply()": {
        "details": "See {IERC721Enumerable-totalSupply}."
      },
      "transferFrom(address,address,uint256)": {
        "details": "See {IERC721-transferFrom}."
      }
    },
    "version": 1
  },
  "userdoc": {
    "kind": "user",
    "methods": {},
    "version": 1
  }
}