{
  "contractName": "NFTCollection",
  "abi": [
    {
      "inputs": [],
      "stateMutability": "nonpayable",
      "type": "constructor"
    },
    {
      "anonymous": false,
      "inputs": [
        {
          "indexed": true,
          "internalType": "address",
          "name": "owner",
          "type": "address"
        },
        {
          "indexed": true,
          "internalType": "address",
          "name": "approved",
          "type": "address"
        },
        {
          "indexed": true,
          "internalType": "uint256",
          "name": "tokenId",
          "type": "uint256"
        }
      ],
      "name": "Approval",
      "type": "event"
    },
    {
      "anonymous": false,
      "inputs": [
        {
          "indexed": true,
          "internalType": "address",
          "name": "owner",
          "type": "address"
        },
        {
          "indexed": true,
          "internalType": "address",
          "name": "operator",
          "type": "address"
        },
        {
          "indexed": false,
          "internalType": "bool",
          "name": "approved",
          "type": "bool"
        }
      ],
      "name": "ApprovalForAll",
      "type": "event"
    },
    {
      "anonymous": false,
      "inputs": [
        {
          "indexed": true,
          "internalType": "address",
          "name": "from",
          "type": "address"
        },
        {
          "indexed": true,
          "internalType": "address",
          "name": "to",
          "type": "address"
        },
        {
          "indexed": true,
          "internalType": "uint256",
          "name": "tokenId",
          "type": "uint256"
        }
      ],
      "name": "Transfer",
      "type": "event"
    },
    {
      "inputs": [
        {
          "internalType": "address",
          "name": "",
          "type": "address"
        }
      ],
      "name": "_user",
      "outputs": [
        {
          "internalType": "string",
          "name": "username",
          "type": "string"
        },
        {
          "internalType": "string",
          "name": "userProfile",
          "type": "string"
        },
        {
          "internalType": "string",
          "name": "userCover",
          "type": "string"
        },
        {
          "internalType": "string",
          "name": "useremail",
          "type": "string"
        },
        {
          "internalType": "string",
          "name": "userBio",
          "type": "string"
        }
      ],
      "stateMutability": "view",
      "type": "function",
      "constant": true
    },
    {
      "inputs": [
        {
          "internalType": "address",
          "name": "",
          "type": "address"
        },
        {
          "internalType": "uint256",
          "name": "",
          "type": "uint256"
        }
      ],
      "name": "_userToken",
      "outputs": [
        {
          "internalType": "uint256",
          "name": "",
          "type": "uint256"
        }
      ],
      "stateMutability": "view",
      "type": "function",
      "constant": true
    },
    {
      "inputs": [
        {
          "internalType": "address",
          "name": "",
          "type": "address"
        },
        {
          "internalType": "uint256",
          "name": "",
          "type": "uint256"
        }
      ],
      "name": "_userTokenoffer",
      "outputs": [
        {
          "internalType": "uint256",
          "name": "",
          "type": "uint256"
        }
      ],
      "stateMutability": "view",
      "type": "function",
      "constant": true
    },
    {
      "inputs": [
        {
          "internalType": "address",
          "name": "to",
          "type": "address"
        },
        {
          "internalType": "uint256",
          "name": "tokenId",
          "type": "uint256"
        }
      ],
      "name": "approve",
      "outputs": [],
      "stateMutability": "nonpayable",
      "type": "function"
    },
    {
      "inputs": [
        {
          "internalType": "address",
          "name": "owner",
          "type": "address"
        }
      ],
      "name": "balanceOf",
      "outputs": [
        {
          "internalType": "uint256",
          "name": "",
          "type": "uint256"
        }
      ],
      "stateMutability": "view",
      "type": "function",
      "constant": true
    },
    {
      "inputs": [
        {
          "internalType": "uint256",
          "name": "tokenId",
          "type": "uint256"
        }
      ],
      "name": "getApproved",
      "outputs": [
        {
          "internalType": "address",
          "name": "",
          "type": "address"
        }
      ],
      "stateMutability": "view",
      "type": "function",
      "constant": true
    },
    {
      "inputs": [
        {
          "internalType": "address",
          "name": "owner",
          "type": "address"
        },
        {
          "internalType": "address",
          "name": "operator",
          "type": "address"
        }
      ],
      "name": "isApprovedForAll",
      "outputs": [
        {
          "internalType": "bool",
          "name": "",
          "type": "bool"
        }
      ],
      "stateMutability": "view",
      "type": "function",
      "constant": true
    },
    {
      "inputs": [],
      "name": "name",
      "outputs": [
        {
          "internalType": "string",
          "name": "",
          "type": "string"
        }
      ],
      "stateMutability": "view",
      "type": "function",
      "constant": true
    },
    {
      "inputs": [
        {
          "internalType": "uint256",
          "name": "tokenId",
          "type": "uint256"
        }
      ],
      "name": "ownerOf",
      "outputs": [
        {
          "internalType": "address",
          "name": "",
          "type": "address"
        }
      ],
      "stateMutability": "view",
      "type": "function",
      "constant": true
    },
    {
      "inputs": [
        {
          "internalType": "address",
          "name": "from",
          "type": "address"
        },
        {
          "internalType": "address",
          "name": "to",
          "type": "address"
        },
        {
          "internalType": "uint256",
          "name": "tokenId",
          "type": "uint256"
        }
      ],
      "name": "safeTransferFrom",
      "outputs": [],
      "stateMutability": "nonpayable",
      "type": "function"
    },
    {
      "inputs": [
        {
          "internalType": "address",
          "name": "from",
          "type": "address"
        },
        {
          "internalType": "address",
          "name": "to",
          "type": "address"
        },
        {
          "internalType": "uint256",
          "name": "tokenId",
          "type": "uint256"
        },
        {
          "internalType": "bytes",
          "name": "_data",
          "type": "bytes"
        }
      ],
      "name": "safeTransferFrom",
      "outputs": [],
      "stateMutability": "nonpayable",
      "type": "function"
    },
    {
      "inputs": [
        {
          "internalType": "address",
          "name": "operator",
          "type": "address"
        },
        {
          "internalType": "bool",
          "name": "approved",
          "type": "bool"
        }
      ],
      "name": "setApprovalForAll",
      "outputs": [],
      "stateMutability": "nonpayable",
      "type": "function"
    },
    {
      "inputs": [],
      "name": "symbol",
      "outputs": [
        {
          "internalType": "string",
          "name": "",
          "type": "string"
        }
      ],
      "stateMutability": "view",
      "type": "function",
      "constant": true
    },
    {
      "inputs": [
        {
          "internalType": "uint256",
          "name": "index",
          "type": "uint256"
        }
      ],
      "name": "tokenByIndex",
      "outputs": [
        {
          "internalType": "uint256",
          "name": "",
          "type": "uint256"
        }
      ],
      "stateMutability": "view",
      "type": "function",
      "constant": true
    },
    {
      "inputs": [
        {
          "internalType": "address",
          "name": "owner",
          "type": "address"
        },
        {
          "internalType": "uint256",
          "name": "index",
          "type": "uint256"
        }
      ],
      "name": "tokenOfOwnerByIndex",
      "outputs": [
        {
          "internalType": "uint256",
          "name": "",
          "type": "uint256"
        }
      ],
      "stateMutability": "view",
      "type": "function",
      "constant": true
    },
    {
      "inputs": [
        {
          "internalType": "uint256",
          "name": "",
          "type": "uint256"
        }
      ],
      "name": "tokenURIs",
      "outputs": [
        {
          "internalType": "string",
          "name": "",
          "type": "string"
        }
      ],
      "stateMutability": "view",
      "type": "function",
      "constant": true
    },
    {
      "inputs": [],
      "name": "totalSupply",
      "outputs": [
        {
          "internalType": "uint256",
          "name": "",
          "type": "uint256"
        }
      ],
      "stateMutability": "view",
      "type": "function",
      "constant": true
    },
    {
      "inputs": [
        {
          "internalType": "address",
          "name": "from",
          "type": "address"
        },
        {
          "internalType": "address",
          "name": "to",
          "type": "address"
        },
        {
          "internalType": "uint256",
          "name": "tokenId",
          "type": "uint256"
        }
      ],
      "name": "transferFrom",
      "outputs": [],
      "stateMutability": "nonpayable",
      "type": "function"
    },
    {
      "inputs": [
        {
          "internalType": "string",
          "name": "_name",
          "type": "string"
        },
        {
          "internalType": "string",
          "name": "_email",
          "type": "string"
        },
        {
          "internalType": "string",
          "name": "_bio",
          "type": "string"
        }
      ],
      "name": "userupdate",
      "outputs": [],
      "stateMutability": "nonpayable",
      "type": "function"
    },
    {
      "inputs": [
        {
          "internalType": "string",
          "name": "profile",
          "type": "string"
        },
        {
          "internalType": "string",
          "name": "cover",
          "type": "string"
        }
      ],
      "name": "userupdatePhoto",
      "outputs": [],
      "stateMutability": "nonpayable",
      "type": "function"
    },
    {
      "inputs": [
        {
          "internalType": "uint256",
          "name": "tokenid",
          "type": "uint256"
        },
        {
          "internalType": "address",
          "name": "myaddress",
          "type": "address"
        }
      ],
      "name": "_userToken_pop",
      "outputs": [],
      "stateMutability": "nonpayable",
      "type": "function"
    },
    {
      "inputs": [
        {
          "internalType": "uint256",
          "name": "tokenid",
          "type": "uint256"
        },
        {
          "internalType": "address",
          "name": "myaddress",
          "type": "address"
        }
      ],
      "name": "_userTokenoffer_pop",
      "outputs": [],
      "stateMutability": "nonpayable",
      "type": "function"
    },
    {
      "inputs": [
        {
          "internalType": "uint256",
          "name": "tokenid",
          "type": "uint256"
        },
        {
          "internalType": "address",
          "name": "myaddress",
          "type": "address"
        }
      ],
      "name": "_userToken_push",
      "outputs": [],
      "stateMutability": "nonpayable",
      "type": "function"
    },
    {
      "inputs": [
        {
          "internalType": "uint256",
          "name": "tokenid",
          "type": "uint256"
        },
        {
          "internalType": "address",
          "name": "myaddress",
          "type": "address"
        }
      ],
      "name": "_userTokenoffer_push",
      "outputs": [],
      "stateMutability": "nonpayable",
      "type": "function"
    },
    {
      "inputs": [
        {
          "internalType": "bytes4",
          "name": "interfaceId",
          "type": "bytes4"
        }
      ],
      "name": "supportsInterface",
      "outputs": [
        {
          "internalType": "bool",
          "name": "",
          "type": "bool"
        }
      ],
      "stateMutability": "view",
      "type": "function",
      "constant": true
    },
    {
      "inputs": [
        {
          "internalType": "uint256",
          "name": "tokenId",
          "type": "uint256"
        }
      ],
      "name": "tokenURI",
      "outputs": [
        {
          "internalType": "string",
          "name": "",
          "type": "string"
        }
      ],
      "stateMutability": "view",
      "type": "function",
      "constant": true
    },
    {
      "inputs": [
        {
          "internalType": "string",
          "name": "_tokenURI",
          "type": "string"
        }
      ],
      "name": "safeMint",
      "outputs": [],
      "stateMutability": "nonpayable",
      "type": "function"
    }
  ],
  "bytecode": "0x60806040523480156200001157600080fd5b506040518060400160405280601081526020017f73696e737520436f6c6c656374696f6e000000000000000000000000000000008152506040518060400160405280600581526020017f53494e5355000000000000000000000000000000000000000000000000000000815250816000908051906020019062000096929190620000b8565b508060019080519060200190620000af929190620000b8565b505050620001cc565b828054620000c69062000197565b90600052602060002090601f016020900481019282620000ea576000855562000136565b82601f106200010557805160ff191683800117855562000136565b8280016001018555821562000136579182015b828111156200013557825182559160200191906001019062000118565b5b50905062000145919062000149565b5090565b5b80821115620001645760008160009055506001016200014a565b5090565b7f4e487b7100000000000000000000000000000000000000000000000000000000600052602260045260246000fd5b60006002820490506001821680620001b057607f821691505b602082108103620001c657620001c562000168565b5b50919050565b613fd280620001dc6000396000f3fe608060405234801561001057600080fd5b50600436106101a95760003560e01c80636352211e116100f9578063a73ee2de11610097578063c87b56dd11610071578063c87b56dd146104d8578063c930167b14610508578063e985e9c51461053c578063fd4a923d1461056c576101a9565b8063a73ee2de14610484578063a8fdce65146104a0578063b88d4fde146104bc576101a9565b806370a08231116100d357806370a08231146103fe5780637abb85841461042e57806395d89b411461044a578063a22cb46514610468576101a9565b80636352211e14610382578063695850fb146103b25780636c8b703f146103ce576101a9565b80631a86b883116101665780632f745c59116101405780632f745c59146102d65780633bfc33c51461030657806342842e0e146103365780634f6ccce714610352576101a9565b80631a86b8831461028257806323b872dd1461029e57806325e79e83146102ba576101a9565b806301ffc9a7146101ae57806306fdde03146101de578063081812fc146101fc578063095ea7b31461022c57806318160ddd1461024857806318dc0cd814610266575b600080fd5b6101c860048036038101906101c39190612b77565b61059c565b6040516101d59190612bbf565b60405180910390f35b6101e66105ae565b6040516101f39190612c73565b60405180910390f35b61021660048036038101906102119190612ccb565b610640565b6040516102239190612d39565b60405180910390f35b61024660048036038101906102419190612d80565b6106c5565b005b6102506107dc565b60405161025d9190612dcf565b60405180910390f35b610280600480360381019061027b9190612dea565b6107e9565b005b61029c60048036038101906102979190612f5f565b610a4d565b005b6102b860048036038101906102b39190613006565b610b57565b005b6102d460048036038101906102cf9190612dea565b610bb7565b005b6102f060048036038101906102eb9190612d80565b610e1b565b6040516102fd9190612dcf565b60405180910390f35b610320600480360381019061031b9190612d80565b610ec0565b60405161032d9190612dcf565b60405180910390f35b610350600480360381019061034b9190613006565b610ef1565b005b61036c60048036038101906103679190612ccb565b610f11565b6040516103799190612dcf565b60405180910390f35b61039c60048036038101906103979190612ccb565b610f82565b6040516103a99190612d39565b60405180910390f35b6103cc60048036038101906103c79190613059565b611033565b005b6103e860048036038101906103e39190612ccb565b6111b8565b6040516103f59190612c73565b60405180910390f35b610418600480360381019061041391906130a2565b611264565b6040516104259190612dcf565b60405180910390f35b610448600480360381019061044391906130cf565b61131b565b005b6104526113cd565b60405161045f9190612c73565b60405180910390f35b610482600480360381019061047d9190613173565b61145f565b005b61049e60048036038101906104999190612dea565b611475565b005b6104ba60048036038101906104b59190612dea565b6114df565b005b6104d660048036038101906104d19190613254565b611549565b005b6104f260048036038101906104ed9190612ccb565b6115ab565b6040516104ff9190612c73565b60405180910390f35b610522600480360381019061051d91906130a2565b611698565b6040516105339594939291906132d7565b60405180910390f35b6105566004803603810190610551919061334d565b611976565b6040516105639190612bbf565b60405180910390f35b61058660048036038101906105819190612d80565b611a0a565b6040516105939190612dcf565b60405180910390f35b60006105a782611a3b565b9050919050565b6060600080546105bd906133bc565b80601f01602080910402602001604051908101604052809291908181526020018280546105e9906133bc565b80156106365780601f1061060b57610100808354040283529160200191610636565b820191906000526020600020905b81548152906001019060200180831161061957829003601f168201915b5050505050905090565b600061064b82611ab5565b61068a576040517f08c379a00000000000000000000000000000000000000000000000000000000081526004016106819061345f565b60405180910390fd5b6004600083815260200190815260200160002060009054906101000a900473ffffffffffffffffffffffffffffffffffffffff169050919050565b60006106d082610f82565b90508073ffffffffffffffffffffffffffffffffffffffff168373ffffffffffffffffffffffffffffffffffffffff1603610740576040517f08c379a0000000000000000000000000000000000000000000000000000000008152600401610737906134f1565b60405180910390fd5b8073ffffffffffffffffffffffffffffffffffffffff1661075f611b21565b73ffffffffffffffffffffffffffffffffffffffff16148061078e575061078d81610788611b21565b611976565b5b6107cd576040517f08c379a00000000000000000000000000000000000000000000000000000000081526004016107c490613583565b60405180910390fd5b6107d78383611b29565b505050565b6000600880549050905090565b60005b600e60008373ffffffffffffffffffffffffffffffffffffffff1673ffffffffffffffffffffffffffffffffffffffff168152602001908152602001600020805490508110156108ac5782600e60008473ffffffffffffffffffffffffffffffffffffffff1673ffffffffffffffffffffffffffffffffffffffff1681526020019081526020016000208281548110610888576108876135a3565b5b906000526020600020015403156108ac5780806108a490613601565b9150506107ec565b60008190505b6001600e60008573ffffffffffffffffffffffffffffffffffffffff1673ffffffffffffffffffffffffffffffffffffffff168152602001908152602001600020805490506109019190613649565b8110156109e257600e60008473ffffffffffffffffffffffffffffffffffffffff1673ffffffffffffffffffffffffffffffffffffffff168152602001908152602001600020600182610954919061367d565b81548110610965576109646135a3565b5b9060005260206000200154600e60008573ffffffffffffffffffffffffffffffffffffffff1673ffffffffffffffffffffffffffffffffffffffff16815260200190815260200160002082815481106109c1576109c06135a3565b5b906000526020600020018190555080806109da90613601565b9150506108b2565b50600e60008373ffffffffffffffffffffffffffffffffffffffff1673ffffffffffffffffffffffffffffffffffffffff168152602001908152602001600020805480610a3257610a316136d3565b5b60019003818190600052602060002001600090559055505050565b82600f60003373ffffffffffffffffffffffffffffffffffffffff1673ffffffffffffffffffffffffffffffffffffffff1681526020019081526020016000206000019080519060200190610aa3929190612a68565b5081600f60003373ffffffffffffffffffffffffffffffffffffffff1673ffffffffffffffffffffffffffffffffffffffff1681526020019081526020016000206003019080519060200190610afa929190612a68565b5080600f60003373ffffffffffffffffffffffffffffffffffffffff1673ffffffffffffffffffffffffffffffffffffffff1681526020019081526020016000206004019080519060200190610b51929190612a68565b50505050565b610b68610b62611b21565b82611be2565b610ba7576040517f08c379a0000000000000000000000000000000000000000000000000000000008152600401610b9e90613774565b60405180910390fd5b610bb2838383611cc0565b505050565b60005b600d60008373ffffffffffffffffffffffffffffffffffffffff1673ffffffffffffffffffffffffffffffffffffffff16815260200190815260200160002080549050811015610c7a5782600d60008473ffffffffffffffffffffffffffffffffffffffff1673ffffffffffffffffffffffffffffffffffffffff1681526020019081526020016000208281548110610c5657610c556135a3565b5b90600052602060002001540315610c7a578080610c7290613601565b915050610bba565b60008190505b6001600d60008573ffffffffffffffffffffffffffffffffffffffff1673ffffffffffffffffffffffffffffffffffffffff16815260200190815260200160002080549050610ccf9190613649565b811015610db057600d60008473ffffffffffffffffffffffffffffffffffffffff1673ffffffffffffffffffffffffffffffffffffffff168152602001908152602001600020600182610d22919061367d565b81548110610d3357610d326135a3565b5b9060005260206000200154600d60008573ffffffffffffffffffffffffffffffffffffffff1673ffffffffffffffffffffffffffffffffffffffff1681526020019081526020016000208281548110610d8f57610d8e6135a3565b5b90600052602060002001819055508080610da890613601565b915050610c80565b50600d60008373ffffffffffffffffffffffffffffffffffffffff1673ffffffffffffffffffffffffffffffffffffffff168152602001908152602001600020805480610e0057610dff6136d3565b5b60019003818190600052602060002001600090559055505050565b6000610e2683611264565b8210610e67576040517f08c379a0000000000000000000000000000000000000000000000000000000008152600401610e5e90613806565b60405180910390fd5b600660008473ffffffffffffffffffffffffffffffffffffffff1673ffffffffffffffffffffffffffffffffffffffff168152602001908152602001600020600083815260200190815260200160002054905092915050565b600e6020528160005260406000208181548110610edc57600080fd5b90600052602060002001600091509150505481565b610f0c83838360405180602001604052806000815250611549565b505050565b6000610f1b6107dc565b8210610f5c576040517f08c379a0000000000000000000000000000000000000000000000000000000008152600401610f5390613898565b60405180910390fd5b60088281548110610f7057610f6f6135a3565b5b90600052602060002001549050919050565b6000806002600084815260200190815260200160002060009054906101000a900473ffffffffffffffffffffffffffffffffffffffff169050600073ffffffffffffffffffffffffffffffffffffffff168173ffffffffffffffffffffffffffffffffffffffff160361102a576040517f08c379a00000000000000000000000000000000000000000000000000000000081526004016110219061392a565b60405180910390fd5b80915050919050565b600b816040516110439190613986565b908152602001604051809103902060009054906101000a900460ff161561109f576040517f08c379a0000000000000000000000000000000000000000000000000000000008152600401611096906139e9565b60405180910390fd5b600a819080600181540180825580915050600190039060005260206000200160009091909190915090805190602001906110da929190612a68565b506000600a80549050905081600c6000838152602001908152602001600020908051906020019061110c929190612a68565b506111173382611f26565b6001600b836040516111299190613986565b908152602001604051809103902060006101000a81548160ff021916908315150217905550600d60003373ffffffffffffffffffffffffffffffffffffffff1673ffffffffffffffffffffffffffffffffffffffff1681526020019081526020016000208190806001815401808255809150506001900390600052602060002001600090919091909150555050565b600a81815481106111c857600080fd5b9060005260206000200160009150905080546111e3906133bc565b80601f016020809104026020016040519081016040528092919081815260200182805461120f906133bc565b801561125c5780601f106112315761010080835404028352916020019161125c565b820191906000526020600020905b81548152906001019060200180831161123f57829003601f168201915b505050505081565b60008073ffffffffffffffffffffffffffffffffffffffff168273ffffffffffffffffffffffffffffffffffffffff16036112d4576040517f08c379a00000000000000000000000000000000000000000000000000000000081526004016112cb90613a7b565b60405180910390fd5b600360008373ffffffffffffffffffffffffffffffffffffffff1673ffffffffffffffffffffffffffffffffffffffff168152602001908152602001600020549050919050565b81600f60003373ffffffffffffffffffffffffffffffffffffffff1673ffffffffffffffffffffffffffffffffffffffff1681526020019081526020016000206001019080519060200190611371929190612a68565b5080600f60003373ffffffffffffffffffffffffffffffffffffffff1673ffffffffffffffffffffffffffffffffffffffff16815260200190815260200160002060020190805190602001906113c8929190612a68565b505050565b6060600180546113dc906133bc565b80601f0160208091040260200160405190810160405280929190818152602001828054611408906133bc565b80156114555780601f1061142a57610100808354040283529160200191611455565b820191906000526020600020905b81548152906001019060200180831161143857829003601f168201915b5050505050905090565b61147161146a611b21565b8383611f44565b5050565b600d60008273ffffffffffffffffffffffffffffffffffffffff1673ffffffffffffffffffffffffffffffffffffffff1681526020019081526020016000208290806001815401808255809150506001900390600052602060002001600090919091909150555050565b600e60008273ffffffffffffffffffffffffffffffffffffffff1673ffffffffffffffffffffffffffffffffffffffff1681526020019081526020016000208290806001815401808255809150506001900390600052602060002001600090919091909150555050565b61155a611554611b21565b83611be2565b611599576040517f08c379a000000000000000000000000000000000000000000000000000000000815260040161159090613774565b60405180910390fd5b6115a5848484846120b0565b50505050565b60606115b682611ab5565b6115f5576040517f08c379a00000000000000000000000000000000000000000000000000000000081526004016115ec90613b0d565b60405180910390fd5b600c60008381526020019081526020016000208054611613906133bc565b80601f016020809104026020016040519081016040528092919081815260200182805461163f906133bc565b801561168c5780601f106116615761010080835404028352916020019161168c565b820191906000526020600020905b81548152906001019060200180831161166f57829003601f168201915b50505050509050919050565b600f6020528060005260406000206000915090508060000180546116bb906133bc565b80601f01602080910402602001604051908101604052809291908181526020018280546116e7906133bc565b80156117345780601f1061170957610100808354040283529160200191611734565b820191906000526020600020905b81548152906001019060200180831161171757829003601f168201915b505050505090806001018054611749906133bc565b80601f0160208091040260200160405190810160405280929190818152602001828054611775906133bc565b80156117c25780601f10611797576101008083540402835291602001916117c2565b820191906000526020600020905b8154815290600101906020018083116117a557829003601f168201915b5050505050908060020180546117d7906133bc565b80601f0160208091040260200160405190810160405280929190818152602001828054611803906133bc565b80156118505780601f1061182557610100808354040283529160200191611850565b820191906000526020600020905b81548152906001019060200180831161183357829003601f168201915b505050505090806003018054611865906133bc565b80601f0160208091040260200160405190810160405280929190818152602001828054611891906133bc565b80156118de5780601f106118b3576101008083540402835291602001916118de565b820191906000526020600020905b8154815290600101906020018083116118c157829003601f168201915b5050505050908060040180546118f3906133bc565b80601f016020809104026020016040519081016040528092919081815260200182805461191f906133bc565b801561196c5780601f106119415761010080835404028352916020019161196c565b820191906000526020600020905b81548152906001019060200180831161194f57829003601f168201915b5050505050905085565b6000600560008473ffffffffffffffffffffffffffffffffffffffff1673ffffffffffffffffffffffffffffffffffffffff16815260200190815260200160002060008373ffffffffffffffffffffffffffffffffffffffff1673ffffffffffffffffffffffffffffffffffffffff16815260200190815260200160002060009054906101000a900460ff16905092915050565b600d6020528160005260406000208181548110611a2657600080fd5b90600052602060002001600091509150505481565b60007f780e9d63000000000000000000000000000000000000000000000000000000007bffffffffffffffffffffffffffffffffffffffffffffffffffffffff1916827bffffffffffffffffffffffffffffffffffffffffffffffffffffffff19161480611aae5750611aad8261210c565b5b9050919050565b60008073ffffffffffffffffffffffffffffffffffffffff166002600084815260200190815260200160002060009054906101000a900473ffffffffffffffffffffffffffffffffffffffff1673ffffffffffffffffffffffffffffffffffffffff1614159050919050565b600033905090565b816004600083815260200190815260200160002060006101000a81548173ffffffffffffffffffffffffffffffffffffffff021916908373ffffffffffffffffffffffffffffffffffffffff160217905550808273ffffffffffffffffffffffffffffffffffffffff16611b9c83610f82565b73ffffffffffffffffffffffffffffffffffffffff167f8c5be1e5ebec7d5bd14f71427d1e84f3dd0314c0f7b2291e5b200ac8c7c3b92560405160405180910390a45050565b6000611bed82611ab5565b611c2c576040517f08c379a0000000000000000000000000000000000000000000000000000000008152600401611c2390613b9f565b60405180910390fd5b6000611c3783610f82565b90508073ffffffffffffffffffffffffffffffffffffffff168473ffffffffffffffffffffffffffffffffffffffff161480611c795750611c788185611976565b5b80611cb757508373ffffffffffffffffffffffffffffffffffffffff16611c9f84610640565b73ffffffffffffffffffffffffffffffffffffffff16145b91505092915050565b8273ffffffffffffffffffffffffffffffffffffffff16611ce082610f82565b73ffffffffffffffffffffffffffffffffffffffff1614611d36576040517f08c379a0000000000000000000000000000000000000000000000000000000008152600401611d2d90613c31565b60405180910390fd5b600073ffffffffffffffffffffffffffffffffffffffff168273ffffffffffffffffffffffffffffffffffffffff1603611da5576040517f08c379a0000000000000000000000000000000000000000000000000000000008152600401611d9c90613cc3565b60405180910390fd5b611db08383836121ee565b611dbb600082611b29565b6001600360008573ffffffffffffffffffffffffffffffffffffffff1673ffffffffffffffffffffffffffffffffffffffff1681526020019081526020016000206000828254611e0b9190613649565b925050819055506001600360008473ffffffffffffffffffffffffffffffffffffffff1673ffffffffffffffffffffffffffffffffffffffff1681526020019081526020016000206000828254611e62919061367d565b92505081905550816002600083815260200190815260200160002060006101000a81548173ffffffffffffffffffffffffffffffffffffffff021916908373ffffffffffffffffffffffffffffffffffffffff160217905550808273ffffffffffffffffffffffffffffffffffffffff168473ffffffffffffffffffffffffffffffffffffffff167fddf252ad1be2c89b69c2b068fc378daa952ba7f163c4a11628f55a4df523b3ef60405160405180910390a4611f218383836121fe565b505050565b611f40828260405180602001604052806000815250612203565b5050565b8173ffffffffffffffffffffffffffffffffffffffff168373ffffffffffffffffffffffffffffffffffffffff1603611fb2576040517f08c379a0000000000000000000000000000000000000000000000000000000008152600401611fa990613d2f565b60405180910390fd5b80600560008573ffffffffffffffffffffffffffffffffffffffff1673ffffffffffffffffffffffffffffffffffffffff16815260200190815260200160002060008473ffffffffffffffffffffffffffffffffffffffff1673ffffffffffffffffffffffffffffffffffffffff16815260200190815260200160002060006101000a81548160ff0219169083151502179055508173ffffffffffffffffffffffffffffffffffffffff168373ffffffffffffffffffffffffffffffffffffffff167f17307eab39ab6107e8899845ad3d59bd9653f200f220920489ca2b5937696c31836040516120a39190612bbf565b60405180910390a3505050565b6120bb848484611cc0565b6120c78484848461225e565b612106576040517f08c379a00000000000000000000000000000000000000000000000000000000081526004016120fd90613dc1565b60405180910390fd5b50505050565b60007f80ac58cd000000000000000000000000000000000000000000000000000000007bffffffffffffffffffffffffffffffffffffffffffffffffffffffff1916827bffffffffffffffffffffffffffffffffffffffffffffffffffffffff191614806121d757507f5b5e139f000000000000000000000000000000000000000000000000000000007bffffffffffffffffffffffffffffffffffffffffffffffffffffffff1916827bffffffffffffffffffffffffffffffffffffffffffffffffffffffff1916145b806121e757506121e6826123e5565b5b9050919050565b6121f983838361244f565b505050565b505050565b61220d8383612561565b61221a600084848461225e565b612259576040517f08c379a000000000000000000000000000000000000000000000000000000000815260040161225090613dc1565b60405180910390fd5b505050565b600061227f8473ffffffffffffffffffffffffffffffffffffffff1661273a565b156123d8578373ffffffffffffffffffffffffffffffffffffffff1663150b7a026122a8611b21565b8786866040518563ffffffff1660e01b81526004016122ca9493929190613e36565b6020604051808303816000875af192505050801561230657506040513d601f19601f820116820180604052508101906123039190613e97565b60015b612388573d8060008114612336576040519150601f19603f3d011682016040523d82523d6000602084013e61233b565b606091505b506000815103612380576040517f08c379a000000000000000000000000000000000000000000000000000000000815260040161237790613dc1565b60405180910390fd5b805181602001fd5b63150b7a0260e01b7bffffffffffffffffffffffffffffffffffffffffffffffffffffffff1916817bffffffffffffffffffffffffffffffffffffffffffffffffffffffff1916149150506123dd565b600190505b949350505050565b60007f01ffc9a7000000000000000000000000000000000000000000000000000000007bffffffffffffffffffffffffffffffffffffffffffffffffffffffff1916827bffffffffffffffffffffffffffffffffffffffffffffffffffffffff1916149050919050565b61245a83838361275d565b600073ffffffffffffffffffffffffffffffffffffffff168373ffffffffffffffffffffffffffffffffffffffff160361249c5761249781612762565b6124db565b8173ffffffffffffffffffffffffffffffffffffffff168373ffffffffffffffffffffffffffffffffffffffff16146124da576124d983826127ab565b5b5b600073ffffffffffffffffffffffffffffffffffffffff168273ffffffffffffffffffffffffffffffffffffffff160361251d5761251881612918565b61255c565b8273ffffffffffffffffffffffffffffffffffffffff168273ffffffffffffffffffffffffffffffffffffffff161461255b5761255a82826129e9565b5b5b505050565b600073ffffffffffffffffffffffffffffffffffffffff168273ffffffffffffffffffffffffffffffffffffffff16036125d0576040517f08c379a00000000000000000000000000000000000000000000000000000000081526004016125c790613f10565b60405180910390fd5b6125d981611ab5565b15612619576040517f08c379a000000000000000000000000000000000000000000000000000000000815260040161261090613f7c565b60405180910390fd5b612625600083836121ee565b6001600360008473ffffffffffffffffffffffffffffffffffffffff1673ffffffffffffffffffffffffffffffffffffffff1681526020019081526020016000206000828254612675919061367d565b92505081905550816002600083815260200190815260200160002060006101000a81548173ffffffffffffffffffffffffffffffffffffffff021916908373ffffffffffffffffffffffffffffffffffffffff160217905550808273ffffffffffffffffffffffffffffffffffffffff16600073ffffffffffffffffffffffffffffffffffffffff167fddf252ad1be2c89b69c2b068fc378daa952ba7f163c4a11628f55a4df523b3ef60405160405180910390a4612736600083836121fe565b5050565b6000808273ffffffffffffffffffffffffffffffffffffffff163b119050919050565b505050565b6008805490506009600083815260200190815260200160002081905550600881908060018154018082558091505060019003906000526020600020016000909190919091505550565b600060016127b884611264565b6127c29190613649565b90506000600760008481526020019081526020016000205490508181146128a7576000600660008673ffffffffffffffffffffffffffffffffffffffff1673ffffffffffffffffffffffffffffffffffffffff168152602001908152602001600020600084815260200190815260200160002054905080600660008773ffffffffffffffffffffffffffffffffffffffff1673ffffffffffffffffffffffffffffffffffffffff168152602001908152602001600020600084815260200190815260200160002081905550816007600083815260200190815260200160002081905550505b6007600084815260200190815260200160002060009055600660008573ffffffffffffffffffffffffffffffffffffffff1673ffffffffffffffffffffffffffffffffffffffff16815260200190815260200160002060008381526020019081526020016000206000905550505050565b6000600160088054905061292c9190613649565b905060006009600084815260200190815260200160002054905060006008838154811061295c5761295b6135a3565b5b90600052602060002001549050806008838154811061297e5761297d6135a3565b5b9060005260206000200181905550816009600083815260200190815260200160002081905550600960008581526020019081526020016000206000905560088054806129cd576129cc6136d3565b5b6001900381819060005260206000200160009055905550505050565b60006129f483611264565b905081600660008573ffffffffffffffffffffffffffffffffffffffff1673ffffffffffffffffffffffffffffffffffffffff168152602001908152602001600020600083815260200190815260200160002081905550806007600084815260200190815260200160002081905550505050565b828054612a74906133bc565b90600052602060002090601f016020900481019282612a965760008555612add565b82601f10612aaf57805160ff1916838001178555612add565b82800160010185558215612add579182015b82811115612adc578251825591602001919060010190612ac1565b5b509050612aea9190612aee565b5090565b5b80821115612b07576000816000905550600101612aef565b5090565b6000604051905090565b600080fd5b600080fd5b60007fffffffff0000000000000000000000000000000000000000000000000000000082169050919050565b612b5481612b1f565b8114612b5f57600080fd5b50565b600081359050612b7181612b4b565b92915050565b600060208284031215612b8d57612b8c612b15565b5b6000612b9b84828501612b62565b91505092915050565b60008115159050919050565b612bb981612ba4565b82525050565b6000602082019050612bd46000830184612bb0565b92915050565b600081519050919050565b600082825260208201905092915050565b60005b83811015612c14578082015181840152602081019050612bf9565b83811115612c23576000848401525b50505050565b6000601f19601f8301169050919050565b6000612c4582612bda565b612c4f8185612be5565b9350612c5f818560208601612bf6565b612c6881612c29565b840191505092915050565b60006020820190508181036000830152612c8d8184612c3a565b905092915050565b6000819050919050565b612ca881612c95565b8114612cb357600080fd5b50565b600081359050612cc581612c9f565b92915050565b600060208284031215612ce157612ce0612b15565b5b6000612cef84828501612cb6565b91505092915050565b600073ffffffffffffffffffffffffffffffffffffffff82169050919050565b6000612d2382612cf8565b9050919050565b612d3381612d18565b82525050565b6000602082019050612d4e6000830184612d2a565b92915050565b612d5d81612d18565b8114612d6857600080fd5b50565b600081359050612d7a81612d54565b92915050565b60008060408385031215612d9757612d96612b15565b5b6000612da585828601612d6b565b9250506020612db685828601612cb6565b9150509250929050565b612dc981612c95565b82525050565b6000602082019050612de46000830184612dc0565b92915050565b60008060408385031215612e0157612e00612b15565b5b6000612e0f85828601612cb6565b9250506020612e2085828601612d6b565b9150509250929050565b600080fd5b600080fd5b7f4e487b7100000000000000000000000000000000000000000000000000000000600052604160045260246000fd5b612e6c82612c29565b810181811067ffffffffffffffff82111715612e8b57612e8a612e34565b5b80604052505050565b6000612e9e612b0b565b9050612eaa8282612e63565b919050565b600067ffffffffffffffff821115612eca57612ec9612e34565b5b612ed382612c29565b9050602081019050919050565b82818337600083830152505050565b6000612f02612efd84612eaf565b612e94565b905082815260208101848484011115612f1e57612f1d612e2f565b5b612f29848285612ee0565b509392505050565b600082601f830112612f4657612f45612e2a565b5b8135612f56848260208601612eef565b91505092915050565b600080600060608486031215612f7857612f77612b15565b5b600084013567ffffffffffffffff811115612f9657612f95612b1a565b5b612fa286828701612f31565b935050602084013567ffffffffffffffff811115612fc357612fc2612b1a565b5b612fcf86828701612f31565b925050604084013567ffffffffffffffff811115612ff057612fef612b1a565b5b612ffc86828701612f31565b9150509250925092565b60008060006060848603121561301f5761301e612b15565b5b600061302d86828701612d6b565b935050602061303e86828701612d6b565b925050604061304f86828701612cb6565b9150509250925092565b60006020828403121561306f5761306e612b15565b5b600082013567ffffffffffffffff81111561308d5761308c612b1a565b5b61309984828501612f31565b91505092915050565b6000602082840312156130b8576130b7612b15565b5b60006130c684828501612d6b565b91505092915050565b600080604083850312156130e6576130e5612b15565b5b600083013567ffffffffffffffff81111561310457613103612b1a565b5b61311085828601612f31565b925050602083013567ffffffffffffffff81111561313157613130612b1a565b5b61313d85828601612f31565b9150509250929050565b61315081612ba4565b811461315b57600080fd5b50565b60008135905061316d81613147565b92915050565b6000806040838503121561318a57613189612b15565b5b600061319885828601612d6b565b92505060206131a98582860161315e565b9150509250929050565b600067ffffffffffffffff8211156131ce576131cd612e34565b5b6131d782612c29565b9050602081019050919050565b60006131f76131f2846131b3565b612e94565b90508281526020810184848401111561321357613212612e2f565b5b61321e848285612ee0565b509392505050565b600082601f83011261323b5761323a612e2a565b5b813561324b8482602086016131e4565b91505092915050565b6000806000806080858703121561326e5761326d612b15565b5b600061327c87828801612d6b565b945050602061328d87828801612d6b565b935050604061329e87828801612cb6565b925050606085013567ffffffffffffffff8111156132bf576132be612b1a565b5b6132cb87828801613226565b91505092959194509250565b600060a08201905081810360008301526132f18188612c3a565b905081810360208301526133058187612c3a565b905081810360408301526133198186612c3a565b9050818103606083015261332d8185612c3a565b905081810360808301526133418184612c3a565b90509695505050505050565b6000806040838503121561336457613363612b15565b5b600061337285828601612d6b565b925050602061338385828601612d6b565b9150509250929050565b7f4e487b7100000000000000000000000000000000000000000000000000000000600052602260045260246000fd5b600060028204905060018216806133d457607f821691505b6020821081036133e7576133e661338d565b5b50919050565b7f4552433732313a20617070726f76656420717565727920666f72206e6f6e657860008201527f697374656e7420746f6b656e0000000000000000000000000000000000000000602082015250565b6000613449602c83612be5565b9150613454826133ed565b604082019050919050565b600060208201905081810360008301526134788161343c565b9050919050565b7f4552433732313a20617070726f76616c20746f2063757272656e74206f776e6560008201527f7200000000000000000000000000000000000000000000000000000000000000602082015250565b60006134db602183612be5565b91506134e68261347f565b604082019050919050565b6000602082019050818103600083015261350a816134ce565b9050919050565b7f4552433732313a20617070726f76652063616c6c6572206973206e6f74206f7760008201527f6e6572206e6f7220617070726f76656420666f7220616c6c0000000000000000602082015250565b600061356d603883612be5565b915061357882613511565b604082019050919050565b6000602082019050818103600083015261359c81613560565b9050919050565b7f4e487b7100000000000000000000000000000000000000000000000000000000600052603260045260246000fd5b7f4e487b7100000000000000000000000000000000000000000000000000000000600052601160045260246000fd5b600061360c82612c95565b91507fffffffffffffffffffffffffffffffffffffffffffffffffffffffffffffffff820361363e5761363d6135d2565b5b600182019050919050565b600061365482612c95565b915061365f83612c95565b925082821015613672576136716135d2565b5b828203905092915050565b600061368882612c95565b915061369383612c95565b9250827fffffffffffffffffffffffffffffffffffffffffffffffffffffffffffffffff038211156136c8576136c76135d2565b5b828201905092915050565b7f4e487b7100000000000000000000000000000000000000000000000000000000600052603160045260246000fd5b7f4552433732313a207472616e736665722063616c6c6572206973206e6f74206f60008201527f776e6572206e6f7220617070726f766564000000000000000000000000000000602082015250565b600061375e603183612be5565b915061376982613702565b604082019050919050565b6000602082019050818103600083015261378d81613751565b9050919050565b7f455243373231456e756d657261626c653a206f776e657220696e646578206f7560008201527f74206f6620626f756e6473000000000000000000000000000000000000000000602082015250565b60006137f0602b83612be5565b91506137fb82613794565b604082019050919050565b6000602082019050818103600083015261381f816137e3565b9050919050565b7f455243373231456e756d657261626c653a20676c6f62616c20696e646578206f60008201527f7574206f6620626f756e64730000000000000000000000000000000000000000602082015250565b6000613882602c83612be5565b915061388d82613826565b604082019050919050565b600060208201905081810360008301526138b181613875565b9050919050565b7f4552433732313a206f776e657220717565727920666f72206e6f6e657869737460008201527f656e7420746f6b656e0000000000000000000000000000000000000000000000602082015250565b6000613914602983612be5565b915061391f826138b8565b604082019050919050565b6000602082019050818103600083015261394381613907565b9050919050565b600081905092915050565b600061396082612bda565b61396a818561394a565b935061397a818560208601612bf6565b80840191505092915050565b60006139928284613955565b915081905092915050565b7f54686520746f6b656e205552492073686f756c6420626520756e697175650000600082015250565b60006139d3601e83612be5565b91506139de8261399d565b602082019050919050565b60006020820190508181036000830152613a02816139c6565b9050919050565b7f4552433732313a2062616c616e636520717565727920666f7220746865207a6560008201527f726f206164647265737300000000000000000000000000000000000000000000602082015250565b6000613a65602a83612be5565b9150613a7082613a09565b604082019050919050565b60006020820190508181036000830152613a9481613a58565b9050919050565b7f4552433732314d657461646174613a2055524920717565727920666f72206e6f60008201527f6e6578697374656e7420746f6b656e0000000000000000000000000000000000602082015250565b6000613af7602f83612be5565b9150613b0282613a9b565b604082019050919050565b60006020820190508181036000830152613b2681613aea565b9050919050565b7f4552433732313a206f70657261746f7220717565727920666f72206e6f6e657860008201527f697374656e7420746f6b656e0000000000000000000000000000000000000000602082015250565b6000613b89602c83612be5565b9150613b9482613b2d565b604082019050919050565b60006020820190508181036000830152613bb881613b7c565b9050919050565b7f4552433732313a207472616e736665722066726f6d20696e636f72726563742060008201527f6f776e6572000000000000000000000000000000000000000000000000000000602082015250565b6000613c1b602583612be5565b9150613c2682613bbf565b604082019050919050565b60006020820190508181036000830152613c4a81613c0e565b9050919050565b7f4552433732313a207472616e7366657220746f20746865207a65726f2061646460008201527f7265737300000000000000000000000000000000000000000000000000000000602082015250565b6000613cad602483612be5565b9150613cb882613c51565b604082019050919050565b60006020820190508181036000830152613cdc81613ca0565b9050919050565b7f4552433732313a20617070726f766520746f2063616c6c657200000000000000600082015250565b6000613d19601983612be5565b9150613d2482613ce3565b602082019050919050565b60006020820190508181036000830152613d4881613d0c565b9050919050565b7f4552433732313a207472616e7366657220746f206e6f6e20455243373231526560008201527f63656976657220696d706c656d656e7465720000000000000000000000000000602082015250565b6000613dab603283612be5565b9150613db682613d4f565b604082019050919050565b60006020820190508181036000830152613dda81613d9e565b9050919050565b600081519050919050565b600082825260208201905092915050565b6000613e0882613de1565b613e128185613dec565b9350613e22818560208601612bf6565b613e2b81612c29565b840191505092915050565b6000608082019050613e4b6000830187612d2a565b613e586020830186612d2a565b613e656040830185612dc0565b8181036060830152613e778184613dfd565b905095945050505050565b600081519050613e9181612b4b565b92915050565b600060208284031215613ead57613eac612b15565b5b6000613ebb84828501613e82565b91505092915050565b7f4552433732313a206d696e7420746f20746865207a65726f2061646472657373600082015250565b6000613efa602083612be5565b9150613f0582613ec4565b602082019050919050565b60006020820190508181036000830152613f2981613eed565b9050919050565b7f4552433732313a20746f6b656e20616c7265616479206d696e74656400000000600082015250565b6000613f66601c83612be5565b9150613f7182613f30565b602082019050919050565b60006020820190508181036000830152613f9581613f59565b905091905056fea2646970667358221220dc38833ce30a4cb1871d3a10e3fd9a47187882efb3b56854f7d877c8a049a34c64736f6c634300080e0033",
  "immutableReferences": {},
  "source": "// SPDX-License-Identifier: MIT\r\npragma solidity ^0.8.0;\r\n\r\nimport \"@openzeppelin/contracts/token/ERC721/ERC721.sol\";\r\nimport \"@openzeppelin/contracts/token/ERC721/extensions/ERC721Enumerable.sol\";\r\n\r\ncontract NFTCollection is ERC721, ERC721Enumerable {\r\n  string[] public tokenURIs;\r\n  mapping(string => bool) _tokenURIExists;\r\n  mapping(uint => string) _tokenIdToTokenURI;\r\n\r\n  mapping(address=>uint[]) public _userToken;\r\n  mapping(address=>uint[]) public _userTokenoffer;\r\n\r\n  mapping(address=>_User) public _user;\r\n\r\n  struct _User {\r\n    string username;\r\n    string userProfile;\r\n    string userCover;\r\n    string useremail;\r\n    string userBio;\r\n  }\r\n\r\n  function userupdate(string memory _name,string memory _email,string memory _bio) public{\r\n   _user[msg.sender].username = _name ;\r\n   _user[msg.sender].useremail = _email ;\r\n   _user[msg.sender].userBio = _bio ;\r\n  }\r\n  function userupdatePhoto(string memory profile,string memory cover)public {\r\n    _user[msg.sender].userProfile=profile;\r\n    _user[msg.sender].userCover=cover;\r\n  }\r\n\r\n\r\n  \r\n  function _userToken_pop(uint tokenid ,address myaddress) public{\r\n      uint j=0;\r\n      while(j<_userToken[myaddress].length){\r\n          if(_userToken[myaddress][j]==tokenid){\r\n              break;\r\n          }\r\n          j++;\r\n      }\r\n      for(uint i=j; i<_userToken[myaddress].length-1;i++){\r\n          _userToken[myaddress][i]=_userToken[myaddress][i+1];\r\n      }\r\n      _userToken[myaddress].pop();\r\n  }\r\n  function _userTokenoffer_pop(uint tokenid ,address myaddress) public{\r\n      uint j=0;\r\n      while(j<_userTokenoffer[myaddress].length){\r\n          if(_userTokenoffer[myaddress][j]==tokenid){\r\n              break;\r\n          }\r\n          j++;\r\n      }\r\n      for(uint i=j; i<_userTokenoffer[myaddress].length-1;i++){\r\n          _userTokenoffer[myaddress][i]=_userTokenoffer[myaddress][i+1];\r\n      }\r\n      _userTokenoffer[myaddress].pop();\r\n  }\r\n  function _userToken_push(uint tokenid, address myaddress) public{\r\n    _userToken[myaddress].push(tokenid);\r\n  }\r\n  function _userTokenoffer_push(uint tokenid, address myaddress) public{\r\n    _userTokenoffer[myaddress].push(tokenid);\r\n  }\r\n\r\n  constructor() \r\n    ERC721(\"sinsu Collection\", \"SINSU\") \r\n  {\r\n  }\r\n\r\n  function _beforeTokenTransfer(address from, address to, uint256 tokenId) internal override(ERC721, ERC721Enumerable) {\r\n    super._beforeTokenTransfer(from, to, tokenId);\r\n  }\r\n\r\n  function supportsInterface(bytes4 interfaceId) public view override(ERC721, ERC721Enumerable) returns (bool) {\r\n    return super.supportsInterface(interfaceId);\r\n  }\r\n\r\n  function tokenURI(uint256 tokenId) public override view returns (string memory) {\r\n    require(_exists(tokenId), 'ERC721Metadata: URI query for nonexistent token');\r\n    return _tokenIdToTokenURI[tokenId];\r\n  }\r\n\r\n  function safeMint(string memory _tokenURI) public {\r\n      require(!_tokenURIExists[_tokenURI], 'The token URI should be unique');\r\n      tokenURIs.push(_tokenURI);    \r\n      uint _id = tokenURIs.length;\r\n      _tokenIdToTokenURI[_id] = _tokenURI;\r\n      _safeMint(msg.sender, _id);\r\n      _tokenURIExists[_tokenURI] = true;\r\n      _userToken[msg.sender].push(_id);\r\n  }\r\n}",
  "sourcePath": "C:\\sinsu\\nft_react\\nuron-nextjs\\truffle\\contracts\\NFTCollection.sol",
  "compiler": {
    "name": "solc",
    "version": "0.8.14+commit.80d49f37.Emscripten.clang"
  },
  "schemaVersion": "3.4.7",
  "updatedAt": "2022-06-04T07:36:58.589Z",
  "networkType": "ethereum",
  "devdoc": {
    "kind": "dev",
    "methods": {
      "approve(address,uint256)": {
        "details": "See {IERC721-approve}."
      },
      "balanceOf(address)": {
        "details": "See {IERC721-balanceOf}."
      },
      "getApproved(uint256)": {
        "details": "See {IERC721-getApproved}."
      },
      "isApprovedForAll(address,address)": {
        "details": "See {IERC721-isApprovedForAll}."
      },
      "name()": {
        "details": "See {IERC721Metadata-name}."
      },
      "ownerOf(uint256)": {
        "details": "See {IERC721-ownerOf}."
      },
      "safeTransferFrom(address,address,uint256)": {
        "details": "See {IERC721-safeTransferFrom}."
      },
      "safeTransferFrom(address,address,uint256,bytes)": {
        "details": "See {IERC721-safeTransferFrom}."
      },
      "setApprovalForAll(address,bool)": {
        "details": "See {IERC721-setApprovalForAll}."
      },
      "symbol()": {
        "details": "See {IERC721Metadata-symbol}."
      },
      "tokenByIndex(uint256)": {
        "details": "See {IERC721Enumerable-tokenByIndex}."
      },
      "tokenOfOwnerByIndex(address,uint256)": {
        "details": "See {IERC721Enumerable-tokenOfOwnerByIndex}."
      },
      "tokenURI(uint256)": {
        "details": "See {IERC721Metadata-tokenURI}."
      },
      "totalSupply()": {
        "details": "See {IERC721Enumerable-totalSupply}."
      },
      "transferFrom(address,address,uint256)": {
        "details": "See {IERC721-transferFrom}."
      }
    },
    "version": 1
  },
  "userdoc": {
    "kind": "user",
    "methods": {},
    "version": 1
  }
}