{
  "contractName": "NFTMarketplace",
  "abi": [
    {
      "inputs": [
        {
          "internalType": "address",
          "name": "_nftCollection",
          "type": "address"
        }
      ],
      "stateMutability": "nonpayable",
      "type": "constructor"
    },
    {
      "anonymous": false,
      "inputs": [
        {
          "indexed": false,
          "internalType": "address",
          "name": "user",
          "type": "address"
        },
        {
          "indexed": false,
          "internalType": "uint256",
          "name": "amount",
          "type": "uint256"
        }
      ],
      "name": "ClaimFunds",
      "type": "event"
    },
    {
      "anonymous": false,
      "inputs": [
        {
          "indexed": false,
          "internalType": "uint256",
          "name": "offerId",
          "type": "uint256"
        },
        {
          "indexed": false,
          "internalType": "uint256",
          "name": "id",
          "type": "uint256"
        },
        {
          "indexed": false,
          "internalType": "address",
          "name": "user",
          "type": "address"
        },
        {
          "indexed": false,
          "internalType": "uint256",
          "name": "price",
          "type": "uint256"
        }
      ],
      "name": "Offer",
      "type": "event"
    },
    {
      "anonymous": false,
      "inputs": [
        {
          "indexed": false,
          "internalType": "uint256",
          "name": "offerId",
          "type": "uint256"
        },
        {
          "indexed": false,
          "internalType": "uint256",
          "name": "id",
          "type": "uint256"
        },
        {
          "indexed": false,
          "internalType": "address",
          "name": "owner",
          "type": "address"
        }
      ],
      "name": "OfferCancelled",
      "type": "event"
    },
    {
      "anonymous": false,
      "inputs": [
        {
          "indexed": false,
          "internalType": "uint256",
          "name": "offerId",
          "type": "uint256"
        },
        {
          "indexed": false,
          "internalType": "uint256",
          "name": "id",
          "type": "uint256"
        },
        {
          "indexed": false,
          "internalType": "address",
          "name": "newOwner",
          "type": "address"
        }
      ],
      "name": "OfferFilled",
      "type": "event"
    },
    {
      "stateMutability": "nonpayable",
      "type": "fallback"
    },
    {
      "inputs": [],
      "name": "offerCount",
      "outputs": [
        {
          "internalType": "uint256",
          "name": "",
          "type": "uint256"
        }
      ],
      "stateMutability": "view",
      "type": "function",
      "constant": true
    },
    {
      "inputs": [
        {
          "internalType": "uint256",
          "name": "",
          "type": "uint256"
        }
      ],
      "name": "offers",
      "outputs": [
        {
          "internalType": "uint256",
          "name": "offerId",
          "type": "uint256"
        },
        {
          "internalType": "uint256",
          "name": "id",
          "type": "uint256"
        },
        {
          "internalType": "address",
          "name": "user",
          "type": "address"
        },
        {
          "internalType": "uint256",
          "name": "price",
          "type": "uint256"
        }
      ],
      "stateMutability": "view",
      "type": "function",
      "constant": true
    },
    {
      "inputs": [
        {
          "internalType": "address",
          "name": "",
          "type": "address"
        }
      ],
      "name": "userFunds",
      "outputs": [
        {
          "internalType": "uint256",
          "name": "",
          "type": "uint256"
        }
      ],
      "stateMutability": "view",
      "type": "function",
      "constant": true
    },
    {
      "inputs": [
        {
          "internalType": "uint256",
          "name": "_id",
          "type": "uint256"
        },
        {
          "internalType": "uint256",
          "name": "_price",
          "type": "uint256"
        }
      ],
      "name": "makeOffer",
      "outputs": [],
      "stateMutability": "nonpayable",
      "type": "function"
    },
    {
      "inputs": [
        {
          "internalType": "uint256",
          "name": "_offerId",
          "type": "uint256"
        }
      ],
      "name": "fillOffer",
      "outputs": [],
      "stateMutability": "payable",
      "type": "function",
      "payable": true
    },
    {
      "inputs": [
        {
          "internalType": "uint256",
          "name": "_offerId",
          "type": "uint256"
        }
      ],
      "name": "cancelOffer",
      "outputs": [],
      "stateMutability": "nonpayable",
      "type": "function"
    },
    {
      "inputs": [],
      "name": "claimFunds",
      "outputs": [],
      "stateMutability": "nonpayable",
      "type": "function"
    }
  ],
  "bytecode": "0x60806040523480156200001157600080fd5b50604051620016b5380380620016b58339818101604052810190620000379190620000e9565b80600360006101000a81548173ffffffffffffffffffffffffffffffffffffffff021916908373ffffffffffffffffffffffffffffffffffffffff160217905550506200011b565b600080fd5b600073ffffffffffffffffffffffffffffffffffffffff82169050919050565b6000620000b18262000084565b9050919050565b620000c381620000a4565b8114620000cf57600080fd5b50565b600081519050620000e381620000b8565b92915050565b6000602082840312156200010257620001016200007f565b5b60006200011284828501620000d2565b91505092915050565b61158a806200012b6000396000f3fe6080604052600436106100745760003560e01c806385dba8611161004e57806385dba861146101175780638a72ea6a14610133578063ac30777314610173578063ef706adf1461018a57610075565b806305b7cdd3146100865780631115c24d146100af5780638387c6e1146100da57610075565b5b34801561008157600080fd5b600080fd5b34801561009257600080fd5b506100ad60048036038101906100a89190610f2f565b6101b3565b005b3480156100bb57600080fd5b506100c4610471565b6040516100d19190610f7e565b60405180910390f35b3480156100e657600080fd5b5061010160048036038101906100fc9190610ff7565b610477565b60405161010e9190610f7e565b60405180910390f35b610131600480360381019061012c9190611024565b61048f565b005b34801561013f57600080fd5b5061015a60048036038101906101559190611024565b610869565b60405161016a9493929190611060565b60405180910390f35b34801561017f57600080fd5b506101886108b9565b005b34801561019657600080fd5b506101b160048036038101906101ac9190611024565b610a80565b005b600360009054906101000a900473ffffffffffffffffffffffffffffffffffffffff1673ffffffffffffffffffffffffffffffffffffffff166323b872dd3330856040518463ffffffff1660e01b8152600401610212939291906110a5565b600060405180830381600087803b15801561022c57600080fd5b505af1158015610240573d6000803e3d6000fd5b505050506000808154809291906102569061110b565b9190505550604051806080016040528060005481526020018381526020013373ffffffffffffffffffffffffffffffffffffffff168152602001828152506001600080548152602001908152602001600020600082015181600001556020820151816001015560408201518160020160006101000a81548173ffffffffffffffffffffffffffffffffffffffff021916908373ffffffffffffffffffffffffffffffffffffffff16021790555060608201518160030155905050600360009054906101000a900473ffffffffffffffffffffffffffffffffffffffff1673ffffffffffffffffffffffffffffffffffffffff1663a8fdce6583336040518363ffffffff1660e01b815260040161036d929190611153565b600060405180830381600087803b15801561038757600080fd5b505af115801561039b573d6000803e3d6000fd5b50505050600360009054906101000a900473ffffffffffffffffffffffffffffffffffffffff1673ffffffffffffffffffffffffffffffffffffffff166325e79e8383336040518363ffffffff1660e01b81526004016103fc929190611153565b600060405180830381600087803b15801561041657600080fd5b505af115801561042a573d6000803e3d6000fd5b505050507fb48766de9aac1d755d29ec3c1bae83022077b03355c2467bb4a29d53587c4b2b6000548333846040516104659493929190611060565b60405180910390a15050565b60005481565b60026020528060005260406000206000915090505481565b6000600160008381526020019081526020016000209050818160000154146104ec576040517f08c379a00000000000000000000000000000000000000000000000000000000081526004016104e3906111d9565b60405180910390fd5b3373ffffffffffffffffffffffffffffffffffffffff168160020160009054906101000a900473ffffffffffffffffffffffffffffffffffffffff1673ffffffffffffffffffffffffffffffffffffffff160361057e576040517f08c379a00000000000000000000000000000000000000000000000000000000081526004016105759061126b565b60405180910390fd5b806003015434146105c4576040517f08c379a00000000000000000000000000000000000000000000000000000000081526004016105bb906112fd565b60405180910390fd5b600360009054906101000a900473ffffffffffffffffffffffffffffffffffffffff1673ffffffffffffffffffffffffffffffffffffffff166323b872dd303384600101546040518463ffffffff1660e01b8152600401610627939291906110a5565b600060405180830381600087803b15801561064157600080fd5b505af1158015610655573d6000803e3d6000fd5b5050505034600260008360020160009054906101000a900473ffffffffffffffffffffffffffffffffffffffff1673ffffffffffffffffffffffffffffffffffffffff1673ffffffffffffffffffffffffffffffffffffffff16815260200190815260200160002060008282546106cc919061131d565b92505081905550600360009054906101000a900473ffffffffffffffffffffffffffffffffffffffff1673ffffffffffffffffffffffffffffffffffffffff166318dc0cd882600101548360020160009054906101000a900473ffffffffffffffffffffffffffffffffffffffff166040518363ffffffff1660e01b8152600401610758929190611153565b600060405180830381600087803b15801561077257600080fd5b505af1158015610786573d6000803e3d6000fd5b50505050600360009054906101000a900473ffffffffffffffffffffffffffffffffffffffff1673ffffffffffffffffffffffffffffffffffffffff1663a73ee2de8260010154336040518363ffffffff1660e01b81526004016107eb929190611153565b600060405180830381600087803b15801561080557600080fd5b505af1158015610819573d6000803e3d6000fd5b5050505061082682610d9a565b7fd9157c065213ada613694e84b1e27fe2efd62d85c6b82bd6c842a4999491e72a8282600101543360405161085d93929190611373565b60405180910390a15050565b60016020528060005260406000206000915090508060000154908060010154908060020160009054906101000a900473ffffffffffffffffffffffffffffffffffffffff16908060030154905084565b6000600260003373ffffffffffffffffffffffffffffffffffffffff1673ffffffffffffffffffffffffffffffffffffffff168152602001908152602001600020541161093b576040517f08c379a00000000000000000000000000000000000000000000000000000000081526004016109329061141c565b60405180910390fd5b3373ffffffffffffffffffffffffffffffffffffffff166108fc600260003373ffffffffffffffffffffffffffffffffffffffff1673ffffffffffffffffffffffffffffffffffffffff168152602001908152602001600020549081150290604051600060405180830381858888f193505050501580156109c0573d6000803e3d6000fd5b507f4f0554190111f93f8c2ccef2cc41473f187d7f29ff5a5c308ca41f9dfe4e989a33600260003373ffffffffffffffffffffffffffffffffffffffff1673ffffffffffffffffffffffffffffffffffffffff16815260200190815260200160002054604051610a3192919061143c565b60405180910390a16000600260003373ffffffffffffffffffffffffffffffffffffffff1673ffffffffffffffffffffffffffffffffffffffff16815260200190815260200160002081905550565b600060016000838152602001908152602001600020905081816000015414610add576040517f08c379a0000000000000000000000000000000000000000000000000000000008152600401610ad4906111d9565b60405180910390fd5b3373ffffffffffffffffffffffffffffffffffffffff168160020160009054906101000a900473ffffffffffffffffffffffffffffffffffffffff1673ffffffffffffffffffffffffffffffffffffffff1614610b6f576040517f08c379a0000000000000000000000000000000000000000000000000000000008152600401610b66906114d7565b60405180910390fd5b600360009054906101000a900473ffffffffffffffffffffffffffffffffffffffff1673ffffffffffffffffffffffffffffffffffffffff166323b872dd303384600101546040518463ffffffff1660e01b8152600401610bd2939291906110a5565b600060405180830381600087803b158015610bec57600080fd5b505af1158015610c00573d6000803e3d6000fd5b50505050600360009054906101000a900473ffffffffffffffffffffffffffffffffffffffff1673ffffffffffffffffffffffffffffffffffffffff166318dc0cd882600101548360020160009054906101000a900473ffffffffffffffffffffffffffffffffffffffff166040518363ffffffff1660e01b8152600401610c89929190611153565b600060405180830381600087803b158015610ca357600080fd5b505af1158015610cb7573d6000803e3d6000fd5b50505050600360009054906101000a900473ffffffffffffffffffffffffffffffffffffffff1673ffffffffffffffffffffffffffffffffffffffff1663a73ee2de8260010154336040518363ffffffff1660e01b8152600401610d1c929190611153565b600060405180830381600087803b158015610d3657600080fd5b505af1158015610d4a573d6000803e3d6000fd5b50505050610d5782610d9a565b7f5b166b4d0498ff8c4719999cb6154c5d197e6f020f9fbfcf9d347f84576cfab782826001015433604051610d8e93929190611373565b60405180910390a15050565b60008190505b6001600054610daf91906114f7565b811015610e835760016000600183610dc7919061131d565b81526020019081526020016000206001600083815260200190815260200160002060008201548160000155600182015481600101556002820160009054906101000a900473ffffffffffffffffffffffffffffffffffffffff168160020160006101000a81548173ffffffffffffffffffffffffffffffffffffffff021916908373ffffffffffffffffffffffffffffffffffffffff160217905550600382015481600301559050508080610e7b9061110b565b915050610da0565b50600160008054815260200190815260200160002060008082016000905560018201600090556002820160006101000a81549073ffffffffffffffffffffffffffffffffffffffff021916905560038201600090555050600080815480929190610eec9061152b565b919050555050565b600080fd5b6000819050919050565b610f0c81610ef9565b8114610f1757600080fd5b50565b600081359050610f2981610f03565b92915050565b60008060408385031215610f4657610f45610ef4565b5b6000610f5485828601610f1a565b9250506020610f6585828601610f1a565b9150509250929050565b610f7881610ef9565b82525050565b6000602082019050610f936000830184610f6f565b92915050565b600073ffffffffffffffffffffffffffffffffffffffff82169050919050565b6000610fc482610f99565b9050919050565b610fd481610fb9565b8114610fdf57600080fd5b50565b600081359050610ff181610fcb565b92915050565b60006020828403121561100d5761100c610ef4565b5b600061101b84828501610fe2565b91505092915050565b60006020828403121561103a57611039610ef4565b5b600061104884828501610f1a565b91505092915050565b61105a81610fb9565b82525050565b60006080820190506110756000830187610f6f565b6110826020830186610f6f565b61108f6040830185611051565b61109c6060830184610f6f565b95945050505050565b60006060820190506110ba6000830186611051565b6110c76020830185611051565b6110d46040830184610f6f565b949350505050565b7f4e487b7100000000000000000000000000000000000000000000000000000000600052601160045260246000fd5b600061111682610ef9565b91507fffffffffffffffffffffffffffffffffffffffffffffffffffffffffffffffff8203611148576111476110dc565b5b600182019050919050565b60006040820190506111686000830185610f6f565b6111756020830184611051565b9392505050565b600082825260208201905092915050565b7f546865206f66666572206d757374206578697374000000000000000000000000600082015250565b60006111c360148361117c565b91506111ce8261118d565b602082019050919050565b600060208201905081810360008301526111f2816111b6565b9050919050565b7f546865206f776e6572206f6620746865206f666665722063616e6e6f7420666960008201527f6c6c206974000000000000000000000000000000000000000000000000000000602082015250565b600061125560258361117c565b9150611260826111f9565b604082019050919050565b6000602082019050818103600083015261128481611248565b9050919050565b7f5468652045544820616d6f756e742073686f756c64206d61746368207769746860008201527f20746865204e4654205072696365000000000000000000000000000000000000602082015250565b60006112e7602e8361117c565b91506112f28261128b565b604082019050919050565b60006020820190508181036000830152611316816112da565b9050919050565b600061132882610ef9565b915061133383610ef9565b9250827fffffffffffffffffffffffffffffffffffffffffffffffffffffffffffffffff03821115611368576113676110dc565b5b828201905092915050565b60006060820190506113886000830186610f6f565b6113956020830185610f6f565b6113a26040830184611051565b949350505050565b7f54686973207573657220686173206e6f2066756e647320746f20626520636c6160008201527f696d656400000000000000000000000000000000000000000000000000000000602082015250565b600061140660248361117c565b9150611411826113aa565b604082019050919050565b60006020820190508181036000830152611435816113f9565b9050919050565b60006040820190506114516000830185611051565b61145e6020830184610f6f565b9392505050565b7f546865206f666665722063616e206f6e6c792062652063616e63656c6564206260008201527f7920746865206f776e6572000000000000000000000000000000000000000000602082015250565b60006114c1602b8361117c565b91506114cc82611465565b604082019050919050565b600060208201905081810360008301526114f0816114b4565b9050919050565b600061150282610ef9565b915061150d83610ef9565b9250828210156115205761151f6110dc565b5b828203905092915050565b600061153682610ef9565b915060008203611549576115486110dc565b5b60018203905091905056fea2646970667358221220fd0fbb00f4d3c96b89fdc3e30fb52e234785d6c8d68478553ffc7b9944d4b6f364736f6c634300080e0033",
  "immutableReferences": {},
  "source": "// SPDX-License-Identifier: MIT\r\npragma solidity ^0.8.0;\r\n\r\nimport \"./NFTCollection.sol\";\r\n\r\ncontract NFTMarketplace {\r\n  uint public offerCount;\r\n  mapping (uint => _Offer) public offers;\r\n  mapping (address => uint) public userFunds;\r\n  NFTCollection nftCollection;\r\n\r\n  function _offers_pop(uint offerid) private{\r\n    for(uint i=offerid;i<offerCount-1;i++){\r\n      offers[i]=offers[i+1];\r\n    }\r\n    delete offers[offerCount];\r\n    offerCount--;\r\n  }\r\n  \r\n  struct _Offer {\r\n    uint offerId;\r\n    uint id;\r\n    address user;\r\n    uint price;\r\n  \r\n  }\r\n  \r\n\r\n  event Offer(\r\n    uint offerId,\r\n    uint id,\r\n    address user,\r\n    uint price\r\n  );\r\n\r\n\r\n  event OfferFilled(uint offerId, uint id, address newOwner);\r\n  event OfferCancelled(uint offerId, uint id, address owner);\r\n  event ClaimFunds(address user, uint amount);\r\n\r\n  constructor(address _nftCollection) {\r\n    nftCollection = NFTCollection(_nftCollection);\r\n  }\r\n  \r\n\r\n   function makeOffer(uint _id, uint _price) public {\r\n    nftCollection.transferFrom(msg.sender, address(this), _id);\r\n    offerCount ++;\r\n    offers[offerCount] = _Offer(offerCount, _id, msg.sender, _price);\r\n    nftCollection._userTokenoffer_push(_id, msg.sender);\r\n    nftCollection._userToken_pop(_id, msg.sender);\r\n    emit Offer(offerCount, _id, msg.sender, _price);\r\n  }\r\n\r\n  function fillOffer(uint _offerId) public payable {\r\n    _Offer storage _offer = offers[_offerId];\r\n    require(_offer.offerId == _offerId, 'The offer must exist');\r\n    require(_offer.user != msg.sender, 'The owner of the offer cannot fill it');\r\n    require(msg.value == _offer.price, 'The ETH amount should match with the NFT Price');\r\n    nftCollection.transferFrom(address(this), msg.sender, _offer.id);\r\n    userFunds[_offer.user] += msg.value;\r\n    nftCollection._userTokenoffer_pop(_offer.id, _offer.user);\r\n    nftCollection._userToken_push(_offer.id, msg.sender);\r\n    _offers_pop(_offerId);\r\n    emit OfferFilled(_offerId, _offer.id, msg.sender);\r\n  }\r\n\r\n  function cancelOffer(uint _offerId) public {\r\n    _Offer storage _offer = offers[_offerId];\r\n    require(_offer.offerId == _offerId, 'The offer must exist');\r\n    require(_offer.user == msg.sender, 'The offer can only be canceled by the owner');\r\n    nftCollection.transferFrom(address(this), msg.sender, _offer.id);\r\n    nftCollection._userTokenoffer_pop(_offer.id, _offer.user);\r\n    nftCollection._userToken_push(_offer.id, msg.sender);\r\n    _offers_pop(_offerId);\r\n    \r\n    emit OfferCancelled(_offerId, _offer.id, msg.sender);\r\n  }\r\n\r\n  function claimFunds() public {\r\n    require(userFunds[msg.sender] > 0, 'This user has no funds to be claimed');\r\n    payable(msg.sender).transfer(userFunds[msg.sender]);\r\n    emit ClaimFunds(msg.sender, userFunds[msg.sender]);\r\n    userFunds[msg.sender] = 0;    \r\n  }\r\n\r\n  // Fallback: reverts if Ether is sent to this smart-contract by mistake\r\n  fallback () external {\r\n    revert();\r\n  }\r\n}",
  "sourcePath": "C:\\sinsu\\nft_react\\nuron-nextjs\\truffle\\contracts\\NFTMarketplace.sol",
  "compiler": {
    "name": "solc",
    "version": "0.8.14+commit.80d49f37.Emscripten.clang"
  },
  "schemaVersion": "3.4.7",
  "updatedAt": "2022-06-04T07:36:58.602Z",
  "networkType": "ethereum",
  "devdoc": {
    "kind": "dev",
    "methods": {},
    "version": 1
  },
  "userdoc": {
    "kind": "user",
    "methods": {},
    "version": 1
  }
}