{
  "contractName": "NFTSinsu",
  "abi": [
    {
      "inputs": [],
      "stateMutability": "nonpayable",
      "type": "constructor"
    },
    {
      "anonymous": false,
      "inputs": [
        {
          "indexed": true,
          "internalType": "address",
          "name": "owner",
          "type": "address"
        },
        {
          "indexed": true,
          "internalType": "address",
          "name": "approved",
          "type": "address"
        },
        {
          "indexed": true,
          "internalType": "uint256",
          "name": "tokenId",
          "type": "uint256"
        }
      ],
      "name": "Approval",
      "type": "event"
    },
    {
      "anonymous": false,
      "inputs": [
        {
          "indexed": true,
          "internalType": "address",
          "name": "owner",
          "type": "address"
        },
        {
          "indexed": true,
          "internalType": "address",
          "name": "operator",
          "type": "address"
        },
        {
          "indexed": false,
          "internalType": "bool",
          "name": "approved",
          "type": "bool"
        }
      ],
      "name": "ApprovalForAll",
      "type": "event"
    },
    {
      "anonymous": false,
      "inputs": [
        {
          "indexed": false,
          "internalType": "address",
          "name": "user",
          "type": "address"
        },
        {
          "indexed": false,
          "internalType": "uint256",
          "name": "amount",
          "type": "uint256"
        }
      ],
      "name": "ClaimFunds",
      "type": "event"
    },
    {
      "anonymous": false,
      "inputs": [
        {
          "indexed": false,
          "internalType": "uint256",
          "name": "offerId",
          "type": "uint256"
        },
        {
          "indexed": false,
          "internalType": "uint256",
          "name": "id",
          "type": "uint256"
        },
        {
          "indexed": false,
          "internalType": "address",
          "name": "user",
          "type": "address"
        },
        {
          "indexed": false,
          "internalType": "uint256",
          "name": "price",
          "type": "uint256"
        },
        {
          "indexed": false,
          "internalType": "bool",
          "name": "fulfilled",
          "type": "bool"
        },
        {
          "indexed": false,
          "internalType": "bool",
          "name": "cancelled",
          "type": "bool"
        }
      ],
      "name": "Offer",
      "type": "event"
    },
    {
      "anonymous": false,
      "inputs": [
        {
          "indexed": false,
          "internalType": "uint256",
          "name": "offerId",
          "type": "uint256"
        },
        {
          "indexed": false,
          "internalType": "uint256",
          "name": "id",
          "type": "uint256"
        },
        {
          "indexed": false,
          "internalType": "address",
          "name": "owner",
          "type": "address"
        }
      ],
      "name": "OfferCancelled",
      "type": "event"
    },
    {
      "anonymous": false,
      "inputs": [
        {
          "indexed": false,
          "internalType": "uint256",
          "name": "offerId",
          "type": "uint256"
        },
        {
          "indexed": false,
          "internalType": "uint256",
          "name": "id",
          "type": "uint256"
        },
        {
          "indexed": false,
          "internalType": "address",
          "name": "newOwner",
          "type": "address"
        }
      ],
      "name": "OfferFilled",
      "type": "event"
    },
    {
      "anonymous": false,
      "inputs": [
        {
          "indexed": true,
          "internalType": "address",
          "name": "from",
          "type": "address"
        },
        {
          "indexed": true,
          "internalType": "address",
          "name": "to",
          "type": "address"
        },
        {
          "indexed": true,
          "internalType": "uint256",
          "name": "tokenId",
          "type": "uint256"
        }
      ],
      "name": "Transfer",
      "type": "event"
    },
    {
      "stateMutability": "nonpayable",
      "type": "fallback"
    },
    {
      "inputs": [
        {
          "internalType": "address",
          "name": "",
          "type": "address"
        },
        {
          "internalType": "uint256",
          "name": "",
          "type": "uint256"
        }
      ],
      "name": "_userToken",
      "outputs": [
        {
          "internalType": "uint256",
          "name": "",
          "type": "uint256"
        }
      ],
      "stateMutability": "view",
      "type": "function"
    },
    {
      "inputs": [
        {
          "internalType": "address",
          "name": "",
          "type": "address"
        },
        {
          "internalType": "uint256",
          "name": "",
          "type": "uint256"
        }
      ],
      "name": "_userTokenoffer",
      "outputs": [
        {
          "internalType": "uint256",
          "name": "",
          "type": "uint256"
        }
      ],
      "stateMutability": "view",
      "type": "function"
    },
    {
      "inputs": [
        {
          "internalType": "address",
          "name": "to",
          "type": "address"
        },
        {
          "internalType": "uint256",
          "name": "tokenId",
          "type": "uint256"
        }
      ],
      "name": "approve",
      "outputs": [],
      "stateMutability": "nonpayable",
      "type": "function"
    },
    {
      "inputs": [
        {
          "internalType": "address",
          "name": "owner",
          "type": "address"
        }
      ],
      "name": "balanceOf",
      "outputs": [
        {
          "internalType": "uint256",
          "name": "",
          "type": "uint256"
        }
      ],
      "stateMutability": "view",
      "type": "function"
    },
    {
      "inputs": [
        {
          "internalType": "uint256",
          "name": "tokenId",
          "type": "uint256"
        }
      ],
      "name": "getApproved",
      "outputs": [
        {
          "internalType": "address",
          "name": "",
          "type": "address"
        }
      ],
      "stateMutability": "view",
      "type": "function"
    },
    {
      "inputs": [
        {
          "internalType": "address",
          "name": "owner",
          "type": "address"
        },
        {
          "internalType": "address",
          "name": "operator",
          "type": "address"
        }
      ],
      "name": "isApprovedForAll",
      "outputs": [
        {
          "internalType": "bool",
          "name": "",
          "type": "bool"
        }
      ],
      "stateMutability": "view",
      "type": "function"
    },
    {
      "inputs": [],
      "name": "name",
      "outputs": [
        {
          "internalType": "string",
          "name": "",
          "type": "string"
        }
      ],
      "stateMutability": "view",
      "type": "function"
    },
    {
      "inputs": [],
      "name": "offerCount",
      "outputs": [
        {
          "internalType": "uint256",
          "name": "",
          "type": "uint256"
        }
      ],
      "stateMutability": "view",
      "type": "function"
    },
    {
      "inputs": [
        {
          "internalType": "uint256",
          "name": "",
          "type": "uint256"
        }
      ],
      "name": "offers",
      "outputs": [
        {
          "internalType": "uint256",
          "name": "offerId",
          "type": "uint256"
        },
        {
          "internalType": "uint256",
          "name": "id",
          "type": "uint256"
        },
        {
          "internalType": "address",
          "name": "user",
          "type": "address"
        },
        {
          "internalType": "uint256",
          "name": "price",
          "type": "uint256"
        },
        {
          "internalType": "bool",
          "name": "fulfilled",
          "type": "bool"
        },
        {
          "internalType": "bool",
          "name": "cancelled",
          "type": "bool"
        }
      ],
      "stateMutability": "view",
      "type": "function"
    },
    {
      "inputs": [
        {
          "internalType": "uint256",
          "name": "tokenId",
          "type": "uint256"
        }
      ],
      "name": "ownerOf",
      "outputs": [
        {
          "internalType": "address",
          "name": "",
          "type": "address"
        }
      ],
      "stateMutability": "view",
      "type": "function"
    },
    {
      "inputs": [
        {
          "internalType": "address",
          "name": "from",
          "type": "address"
        },
        {
          "internalType": "address",
          "name": "to",
          "type": "address"
        },
        {
          "internalType": "uint256",
          "name": "tokenId",
          "type": "uint256"
        }
      ],
      "name": "safeTransferFrom",
      "outputs": [],
      "stateMutability": "nonpayable",
      "type": "function"
    },
    {
      "inputs": [
        {
          "internalType": "address",
          "name": "from",
          "type": "address"
        },
        {
          "internalType": "address",
          "name": "to",
          "type": "address"
        },
        {
          "internalType": "uint256",
          "name": "tokenId",
          "type": "uint256"
        },
        {
          "internalType": "bytes",
          "name": "_data",
          "type": "bytes"
        }
      ],
      "name": "safeTransferFrom",
      "outputs": [],
      "stateMutability": "nonpayable",
      "type": "function"
    },
    {
      "inputs": [
        {
          "internalType": "address",
          "name": "operator",
          "type": "address"
        },
        {
          "internalType": "bool",
          "name": "approved",
          "type": "bool"
        }
      ],
      "name": "setApprovalForAll",
      "outputs": [],
      "stateMutability": "nonpayable",
      "type": "function"
    },
    {
      "inputs": [],
      "name": "symbol",
      "outputs": [
        {
          "internalType": "string",
          "name": "",
          "type": "string"
        }
      ],
      "stateMutability": "view",
      "type": "function"
    },
    {
      "inputs": [
        {
          "internalType": "uint256",
          "name": "index",
          "type": "uint256"
        }
      ],
      "name": "tokenByIndex",
      "outputs": [
        {
          "internalType": "uint256",
          "name": "",
          "type": "uint256"
        }
      ],
      "stateMutability": "view",
      "type": "function"
    },
    {
      "inputs": [
        {
          "internalType": "address",
          "name": "owner",
          "type": "address"
        },
        {
          "internalType": "uint256",
          "name": "index",
          "type": "uint256"
        }
      ],
      "name": "tokenOfOwnerByIndex",
      "outputs": [
        {
          "internalType": "uint256",
          "name": "",
          "type": "uint256"
        }
      ],
      "stateMutability": "view",
      "type": "function"
    },
    {
      "inputs": [
        {
          "internalType": "uint256",
          "name": "",
          "type": "uint256"
        }
      ],
      "name": "tokenURIs",
      "outputs": [
        {
          "internalType": "string",
          "name": "",
          "type": "string"
        }
      ],
      "stateMutability": "view",
      "type": "function"
    },
    {
      "inputs": [],
      "name": "totalSupply",
      "outputs": [
        {
          "internalType": "uint256",
          "name": "",
          "type": "uint256"
        }
      ],
      "stateMutability": "view",
      "type": "function"
    },
    {
      "inputs": [
        {
          "internalType": "address",
          "name": "from",
          "type": "address"
        },
        {
          "internalType": "address",
          "name": "to",
          "type": "address"
        },
        {
          "internalType": "uint256",
          "name": "tokenId",
          "type": "uint256"
        }
      ],
      "name": "transferFrom",
      "outputs": [],
      "stateMutability": "nonpayable",
      "type": "function"
    },
    {
      "inputs": [
        {
          "internalType": "address",
          "name": "",
          "type": "address"
        }
      ],
      "name": "userFunds",
      "outputs": [
        {
          "internalType": "uint256",
          "name": "",
          "type": "uint256"
        }
      ],
      "stateMutability": "view",
      "type": "function"
    },
    {
      "inputs": [
        {
          "internalType": "bytes4",
          "name": "interfaceId",
          "type": "bytes4"
        }
      ],
      "name": "supportsInterface",
      "outputs": [
        {
          "internalType": "bool",
          "name": "",
          "type": "bool"
        }
      ],
      "stateMutability": "view",
      "type": "function"
    },
    {
      "inputs": [
        {
          "internalType": "uint256",
          "name": "tokenId",
          "type": "uint256"
        }
      ],
      "name": "tokenURI",
      "outputs": [
        {
          "internalType": "string",
          "name": "",
          "type": "string"
        }
      ],
      "stateMutability": "view",
      "type": "function"
    },
    {
      "inputs": [
        {
          "internalType": "string",
          "name": "_tokenURI",
          "type": "string"
        }
      ],
      "name": "safeMint",
      "outputs": [],
      "stateMutability": "nonpayable",
      "type": "function"
    },
    {
      "inputs": [
        {
          "internalType": "uint256",
          "name": "_id",
          "type": "uint256"
        },
        {
          "internalType": "uint256",
          "name": "_price",
          "type": "uint256"
        }
      ],
      "name": "makeOffer",
      "outputs": [],
      "stateMutability": "nonpayable",
      "type": "function"
    },
    {
      "inputs": [
        {
          "internalType": "uint256",
          "name": "_offerId",
          "type": "uint256"
        }
      ],
      "name": "fillOffer",
      "outputs": [],
      "stateMutability": "payable",
      "type": "function"
    },
    {
      "inputs": [
        {
          "internalType": "uint256",
          "name": "_offerId",
          "type": "uint256"
        }
      ],
      "name": "cancelOffer",
      "outputs": [],
      "stateMutability": "nonpayable",
      "type": "function"
    },
    {
      "inputs": [],
      "name": "claimFunds",
      "outputs": [],
      "stateMutability": "nonpayable",
      "type": "function"
    }
  ],
  "bytecode": "0x60806040523480156200001157600080fd5b506040518060400160405280601081526020017f73696e737520436f6c6c656374696f6e000000000000000000000000000000008152506040518060400160405280600581526020017f53494e5355000000000000000000000000000000000000000000000000000000815250816000908051906020019062000096929190620000b8565b508060019080519060200190620000af929190620000b8565b505050620001cc565b828054620000c69062000197565b90600052602060002090601f016020900481019282620000ea576000855562000136565b82601f106200010557805160ff191683800117855562000136565b8280016001018555821562000136579182015b828111156200013557825182559160200191906001019062000118565b5b50905062000145919062000149565b5090565b5b80821115620001645760008160009055506001016200014a565b5090565b7f4e487b7100000000000000000000000000000000000000000000000000000000600052602260045260246000fd5b60006002820490506001821680620001b057607f821691505b602082108103620001c657620001c562000168565b5b50919050565b61499180620001dc6000396000f3fe6080604052600436106101a05760003560e01c8063695850fb116100ec578063a22cb4651161008a578063c87b56dd11610064578063c87b56dd14610617578063e985e9c514610654578063ef706adf14610691578063fd4a923d146106ba576101a1565b8063a22cb465146105ae578063ac307773146105d7578063b88d4fde146105ee576101a1565b80638387c6e1116100c65780638387c6e1146104e857806385dba861146105255780638a72ea6a1461054157806395d89b4114610583576101a1565b8063695850fb146104455780636c8b703f1461046e57806370a08231146104ab576101a1565b806318160ddd116101595780633bfc33c5116101335780633bfc33c51461036557806342842e0e146103a25780634f6ccce7146103cb5780636352211e14610408576101a1565b806318160ddd146102d457806323b872dd146102ff5780632f745c5914610328576101a1565b806301ffc9a7146101b257806305b7cdd3146101ef57806306fdde0314610218578063081812fc14610243578063095ea7b3146102805780631115c24d146102a9576101a1565b5b3480156101ad57600080fd5b600080fd5b3480156101be57600080fd5b506101d960048036038101906101d4919061310e565b6106f7565b6040516101e69190613156565b60405180910390f35b3480156101fb57600080fd5b50610216600480360381019061021191906131a7565b610709565b005b34801561022457600080fd5b5061022d6108ec565b60405161023a9190613280565b60405180910390f35b34801561024f57600080fd5b5061026a600480360381019061026591906132a2565b61097e565b6040516102779190613310565b60405180910390f35b34801561028c57600080fd5b506102a760048036038101906102a29190613357565b610a03565b005b3480156102b557600080fd5b506102be610b1a565b6040516102cb91906133a6565b60405180910390f35b3480156102e057600080fd5b506102e9610b20565b6040516102f691906133a6565b60405180910390f35b34801561030b57600080fd5b50610326600480360381019061032191906133c1565b610b2d565b005b34801561033457600080fd5b5061034f600480360381019061034a9190613357565b610b8d565b60405161035c91906133a6565b60405180910390f35b34801561037157600080fd5b5061038c60048036038101906103879190613357565b610c32565b60405161039991906133a6565b60405180910390f35b3480156103ae57600080fd5b506103c960048036038101906103c491906133c1565b610c63565b005b3480156103d757600080fd5b506103f260048036038101906103ed91906132a2565b610c83565b6040516103ff91906133a6565b60405180910390f35b34801561041457600080fd5b5061042f600480360381019061042a91906132a2565b610cf4565b60405161043c9190613310565b60405180910390f35b34801561045157600080fd5b5061046c60048036038101906104679190613549565b610da5565b005b34801561047a57600080fd5b50610495600480360381019061049091906132a2565b610f2a565b6040516104a29190613280565b60405180910390f35b3480156104b757600080fd5b506104d260048036038101906104cd9190613592565b610fd6565b6040516104df91906133a6565b60405180910390f35b3480156104f457600080fd5b5061050f600480360381019061050a9190613592565b61108d565b60405161051c91906133a6565b60405180910390f35b61053f600480360381019061053a91906132a2565b6110a5565b005b34801561054d57600080fd5b50610568600480360381019061056391906132a2565b611403565b60405161057a969594939291906135bf565b60405180910390f35b34801561058f57600080fd5b50610598611479565b6040516105a59190613280565b60405180910390f35b3480156105ba57600080fd5b506105d560048036038101906105d0919061364c565b61150b565b005b3480156105e357600080fd5b506105ec611521565b005b3480156105fa57600080fd5b506106156004803603810190610610919061372d565b6116e8565b005b34801561062357600080fd5b5061063e600480360381019061063991906132a2565b61174a565b60405161064b9190613280565b60405180910390f35b34801561066057600080fd5b5061067b600480360381019061067691906137b0565b611837565b6040516106889190613156565b60405180910390f35b34801561069d57600080fd5b506106b860048036038101906106b391906132a2565b6118cb565b005b3480156106c657600080fd5b506106e160048036038101906106dc9190613357565b611ad9565b6040516106ee91906133a6565b60405180910390f35b600061070282611b0a565b9050919050565b610714333084610b2d565b600f60008154809291906107279061381f565b91905055506040518060c00160405280600f5481526020018381526020013373ffffffffffffffffffffffffffffffffffffffff1681526020018281526020016000151581526020016000151581525060106000600f548152602001908152602001600020600082015181600001556020820151816001015560408201518160020160006101000a81548173ffffffffffffffffffffffffffffffffffffffff021916908373ffffffffffffffffffffffffffffffffffffffff1602179055506060820151816003015560808201518160040160006101000a81548160ff02191690831515021790555060a08201518160040160016101000a81548160ff021916908315150217905550905050600e60003373ffffffffffffffffffffffffffffffffffffffff1673ffffffffffffffffffffffffffffffffffffffff1681526020019081526020016000208290806001815401808255809150506001900390600052602060002001600090919091909150556108a48233611b84565b7f93e711896d4ef527d199d7e101922e20f918cbb248a0fb0977c52fda24aa1f1d600f548333846000806040516108e0969594939291906135bf565b60405180910390a15050565b6060600080546108fb90613896565b80601f016020809104026020016040519081016040528092919081815260200182805461092790613896565b80156109745780601f1061094957610100808354040283529160200191610974565b820191906000526020600020905b81548152906001019060200180831161095757829003601f168201915b5050505050905090565b600061098982611de8565b6109c8576040517f08c379a00000000000000000000000000000000000000000000000000000000081526004016109bf90613939565b60405180910390fd5b6004600083815260200190815260200160002060009054906101000a900473ffffffffffffffffffffffffffffffffffffffff169050919050565b6000610a0e82610cf4565b90508073ffffffffffffffffffffffffffffffffffffffff168373ffffffffffffffffffffffffffffffffffffffff1603610a7e576040517f08c379a0000000000000000000000000000000000000000000000000000000008152600401610a75906139cb565b60405180910390fd5b8073ffffffffffffffffffffffffffffffffffffffff16610a9d611e54565b73ffffffffffffffffffffffffffffffffffffffff161480610acc5750610acb81610ac6611e54565b611837565b5b610b0b576040517f08c379a0000000000000000000000000000000000000000000000000000000008152600401610b0290613a5d565b60405180910390fd5b610b158383611e5c565b505050565b600f5481565b6000600880549050905090565b610b3e610b38611e54565b82611f15565b610b7d576040517f08c379a0000000000000000000000000000000000000000000000000000000008152600401610b7490613aef565b60405180910390fd5b610b88838383611ff3565b505050565b6000610b9883610fd6565b8210610bd9576040517f08c379a0000000000000000000000000000000000000000000000000000000008152600401610bd090613b81565b60405180910390fd5b600660008473ffffffffffffffffffffffffffffffffffffffff1673ffffffffffffffffffffffffffffffffffffffff168152602001908152602001600020600083815260200190815260200160002054905092915050565b600e6020528160005260406000208181548110610c4e57600080fd5b90600052602060002001600091509150505481565b610c7e838383604051806020016040528060008152506116e8565b505050565b6000610c8d610b20565b8210610cce576040517f08c379a0000000000000000000000000000000000000000000000000000000008152600401610cc590613c13565b60405180910390fd5b60088281548110610ce257610ce1613c33565b5b90600052602060002001549050919050565b6000806002600084815260200190815260200160002060009054906101000a900473ffffffffffffffffffffffffffffffffffffffff169050600073ffffffffffffffffffffffffffffffffffffffff168173ffffffffffffffffffffffffffffffffffffffff1603610d9c576040517f08c379a0000000000000000000000000000000000000000000000000000000008152600401610d9390613cd4565b60405180910390fd5b80915050919050565b600b81604051610db59190613d30565b908152602001604051809103902060009054906101000a900460ff1615610e11576040517f08c379a0000000000000000000000000000000000000000000000000000000008152600401610e0890613d93565b60405180910390fd5b600a81908060018154018082558091505060019003906000526020600020016000909190919091509080519060200190610e4c929190612fff565b506000600a80549050905081600c60008381526020019081526020016000209080519060200190610e7e929190612fff565b50610e893382612259565b6001600b83604051610e9b9190613d30565b908152602001604051809103902060006101000a81548160ff021916908315150217905550600d60003373ffffffffffffffffffffffffffffffffffffffff1673ffffffffffffffffffffffffffffffffffffffff1681526020019081526020016000208190806001815401808255809150506001900390600052602060002001600090919091909150555050565b600a8181548110610f3a57600080fd5b906000526020600020016000915090508054610f5590613896565b80601f0160208091040260200160405190810160405280929190818152602001828054610f8190613896565b8015610fce5780601f10610fa357610100808354040283529160200191610fce565b820191906000526020600020905b815481529060010190602001808311610fb157829003601f168201915b505050505081565b60008073ffffffffffffffffffffffffffffffffffffffff168273ffffffffffffffffffffffffffffffffffffffff1603611046576040517f08c379a000000000000000000000000000000000000000000000000000000000815260040161103d90613e25565b60405180910390fd5b600360008373ffffffffffffffffffffffffffffffffffffffff1673ffffffffffffffffffffffffffffffffffffffff168152602001908152602001600020549050919050565b60116020528060005260406000206000915090505481565b600060106000838152602001908152602001600020905081816000015414611102576040517f08c379a00000000000000000000000000000000000000000000000000000000081526004016110f990613e91565b60405180910390fd5b3373ffffffffffffffffffffffffffffffffffffffff168160020160009054906101000a900473ffffffffffffffffffffffffffffffffffffffff1673ffffffffffffffffffffffffffffffffffffffff1603611194576040517f08c379a000000000000000000000000000000000000000000000000000000000815260040161118b90613f23565b60405180910390fd5b8060040160009054906101000a900460ff16156111e6576040517f08c379a00000000000000000000000000000000000000000000000000000000081526004016111dd90613fb5565b60405180910390fd5b8060040160019054906101000a900460ff1615611238576040517f08c379a000000000000000000000000000000000000000000000000000000000815260040161122f90614047565b60405180910390fd5b8060030154341461127e576040517f08c379a0000000000000000000000000000000000000000000000000000000008152600401611275906140d9565b60405180910390fd5b61128d30338360010154610b2d565b60018160040160006101000a81548160ff02191690831515021790555034601160008360020160009054906101000a900473ffffffffffffffffffffffffffffffffffffffff1673ffffffffffffffffffffffffffffffffffffffff1673ffffffffffffffffffffffffffffffffffffffff168152602001908152602001600020600082825461131d91906140f9565b9250508190555061135681600001548260020160009054906101000a900473ffffffffffffffffffffffffffffffffffffffff16612277565b600d60003373ffffffffffffffffffffffffffffffffffffffff1673ffffffffffffffffffffffffffffffffffffffff168152602001908152602001600020816000015490806001815401808255809150506001900390600052602060002001600090919091909150557fd9157c065213ada613694e84b1e27fe2efd62d85c6b82bd6c842a4999491e72a828260010154336040516113f79392919061414f565b60405180910390a15050565b60106020528060005260406000206000915090508060000154908060010154908060020160009054906101000a900473ffffffffffffffffffffffffffffffffffffffff16908060030154908060040160009054906101000a900460ff16908060040160019054906101000a900460ff16905086565b60606001805461148890613896565b80601f01602080910402602001604051908101604052809291908181526020018280546114b490613896565b80156115015780601f106114d657610100808354040283529160200191611501565b820191906000526020600020905b8154815290600101906020018083116114e457829003601f168201915b5050505050905090565b61151d611516611e54565b83836124db565b5050565b6000601160003373ffffffffffffffffffffffffffffffffffffffff1673ffffffffffffffffffffffffffffffffffffffff16815260200190815260200160002054116115a3576040517f08c379a000000000000000000000000000000000000000000000000000000000815260040161159a906141f8565b60405180910390fd5b3373ffffffffffffffffffffffffffffffffffffffff166108fc601160003373ffffffffffffffffffffffffffffffffffffffff1673ffffffffffffffffffffffffffffffffffffffff168152602001908152602001600020549081150290604051600060405180830381858888f19350505050158015611628573d6000803e3d6000fd5b507f4f0554190111f93f8c2ccef2cc41473f187d7f29ff5a5c308ca41f9dfe4e989a33601160003373ffffffffffffffffffffffffffffffffffffffff1673ffffffffffffffffffffffffffffffffffffffff16815260200190815260200160002054604051611699929190614218565b60405180910390a16000601160003373ffffffffffffffffffffffffffffffffffffffff1673ffffffffffffffffffffffffffffffffffffffff16815260200190815260200160002081905550565b6116f96116f3611e54565b83611f15565b611738576040517f08c379a000000000000000000000000000000000000000000000000000000000815260040161172f90613aef565b60405180910390fd5b61174484848484612647565b50505050565b606061175582611de8565b611794576040517f08c379a000000000000000000000000000000000000000000000000000000000815260040161178b906142b3565b60405180910390fd5b600c600083815260200190815260200160002080546117b290613896565b80601f01602080910402602001604051908101604052809291908181526020018280546117de90613896565b801561182b5780601f106118005761010080835404028352916020019161182b565b820191906000526020600020905b81548152906001019060200180831161180e57829003601f168201915b50505050509050919050565b6000600560008473ffffffffffffffffffffffffffffffffffffffff1673ffffffffffffffffffffffffffffffffffffffff16815260200190815260200160002060008373ffffffffffffffffffffffffffffffffffffffff1673ffffffffffffffffffffffffffffffffffffffff16815260200190815260200160002060009054906101000a900460ff16905092915050565b600060106000838152602001908152602001600020905081816000015414611928576040517f08c379a000000000000000000000000000000000000000000000000000000000815260040161191f90613e91565b60405180910390fd5b3373ffffffffffffffffffffffffffffffffffffffff168160020160009054906101000a900473ffffffffffffffffffffffffffffffffffffffff1673ffffffffffffffffffffffffffffffffffffffff16146119ba576040517f08c379a00000000000000000000000000000000000000000000000000000000081526004016119b190614345565b60405180910390fd5b600015158160040160009054906101000a900460ff16151514611a12576040517f08c379a0000000000000000000000000000000000000000000000000000000008152600401611a09906143d7565b60405180910390fd5b600015158160040160019054906101000a900460ff16151514611a6a576040517f08c379a0000000000000000000000000000000000000000000000000000000008152600401611a6190614469565b60405180910390fd5b611a7930338360010154610b2d565b60018160040160016101000a81548160ff0219169083151502179055507f5b166b4d0498ff8c4719999cb6154c5d197e6f020f9fbfcf9d347f84576cfab782826001015433604051611acd9392919061414f565b60405180910390a15050565b600d6020528160005260406000208181548110611af557600080fd5b90600052602060002001600091509150505481565b60007f780e9d63000000000000000000000000000000000000000000000000000000007bffffffffffffffffffffffffffffffffffffffffffffffffffffffff1916827bffffffffffffffffffffffffffffffffffffffffffffffffffffffff19161480611b7d5750611b7c826126a3565b5b9050919050565b60005b600d60008373ffffffffffffffffffffffffffffffffffffffff1673ffffffffffffffffffffffffffffffffffffffff16815260200190815260200160002080549050811015611c475782600d60008473ffffffffffffffffffffffffffffffffffffffff1673ffffffffffffffffffffffffffffffffffffffff1681526020019081526020016000208281548110611c2357611c22613c33565b5b90600052602060002001540315611c47578080611c3f9061381f565b915050611b87565b60008190505b6001600d60008573ffffffffffffffffffffffffffffffffffffffff1673ffffffffffffffffffffffffffffffffffffffff16815260200190815260200160002080549050611c9c9190614489565b811015611d7d57600d60008473ffffffffffffffffffffffffffffffffffffffff1673ffffffffffffffffffffffffffffffffffffffff168152602001908152602001600020600182611cef91906140f9565b81548110611d0057611cff613c33565b5b9060005260206000200154600d60008573ffffffffffffffffffffffffffffffffffffffff1673ffffffffffffffffffffffffffffffffffffffff1681526020019081526020016000208281548110611d5c57611d5b613c33565b5b90600052602060002001819055508080611d759061381f565b915050611c4d565b50600d60008373ffffffffffffffffffffffffffffffffffffffff1673ffffffffffffffffffffffffffffffffffffffff168152602001908152602001600020805480611dcd57611dcc6144bd565b5b60019003818190600052602060002001600090559055505050565b60008073ffffffffffffffffffffffffffffffffffffffff166002600084815260200190815260200160002060009054906101000a900473ffffffffffffffffffffffffffffffffffffffff1673ffffffffffffffffffffffffffffffffffffffff1614159050919050565b600033905090565b816004600083815260200190815260200160002060006101000a81548173ffffffffffffffffffffffffffffffffffffffff021916908373ffffffffffffffffffffffffffffffffffffffff160217905550808273ffffffffffffffffffffffffffffffffffffffff16611ecf83610cf4565b73ffffffffffffffffffffffffffffffffffffffff167f8c5be1e5ebec7d5bd14f71427d1e84f3dd0314c0f7b2291e5b200ac8c7c3b92560405160405180910390a45050565b6000611f2082611de8565b611f5f576040517f08c379a0000000000000000000000000000000000000000000000000000000008152600401611f569061455e565b60405180910390fd5b6000611f6a83610cf4565b90508073ffffffffffffffffffffffffffffffffffffffff168473ffffffffffffffffffffffffffffffffffffffff161480611fac5750611fab8185611837565b5b80611fea57508373ffffffffffffffffffffffffffffffffffffffff16611fd28461097e565b73ffffffffffffffffffffffffffffffffffffffff16145b91505092915050565b8273ffffffffffffffffffffffffffffffffffffffff1661201382610cf4565b73ffffffffffffffffffffffffffffffffffffffff1614612069576040517f08c379a0000000000000000000000000000000000000000000000000000000008152600401612060906145f0565b60405180910390fd5b600073ffffffffffffffffffffffffffffffffffffffff168273ffffffffffffffffffffffffffffffffffffffff16036120d8576040517f08c379a00000000000000000000000000000000000000000000000000000000081526004016120cf90614682565b60405180910390fd5b6120e3838383612785565b6120ee600082611e5c565b6001600360008573ffffffffffffffffffffffffffffffffffffffff1673ffffffffffffffffffffffffffffffffffffffff168152602001908152602001600020600082825461213e9190614489565b925050819055506001600360008473ffffffffffffffffffffffffffffffffffffffff1673ffffffffffffffffffffffffffffffffffffffff168152602001908152602001600020600082825461219591906140f9565b92505081905550816002600083815260200190815260200160002060006101000a81548173ffffffffffffffffffffffffffffffffffffffff021916908373ffffffffffffffffffffffffffffffffffffffff160217905550808273ffffffffffffffffffffffffffffffffffffffff168473ffffffffffffffffffffffffffffffffffffffff167fddf252ad1be2c89b69c2b068fc378daa952ba7f163c4a11628f55a4df523b3ef60405160405180910390a4612254838383612795565b505050565b61227382826040518060200160405280600081525061279a565b5050565b60005b600e60008373ffffffffffffffffffffffffffffffffffffffff1673ffffffffffffffffffffffffffffffffffffffff1681526020019081526020016000208054905081101561233a5782600e60008473ffffffffffffffffffffffffffffffffffffffff1673ffffffffffffffffffffffffffffffffffffffff168152602001908152602001600020828154811061231657612315613c33565b5b9060005260206000200154031561233a5780806123329061381f565b91505061227a565b60008190505b6001600e60008573ffffffffffffffffffffffffffffffffffffffff1673ffffffffffffffffffffffffffffffffffffffff1681526020019081526020016000208054905061238f9190614489565b81101561247057600e60008473ffffffffffffffffffffffffffffffffffffffff1673ffffffffffffffffffffffffffffffffffffffff1681526020019081526020016000206001826123e291906140f9565b815481106123f3576123f2613c33565b5b9060005260206000200154600e60008573ffffffffffffffffffffffffffffffffffffffff1673ffffffffffffffffffffffffffffffffffffffff168152602001908152602001600020828154811061244f5761244e613c33565b5b906000526020600020018190555080806124689061381f565b915050612340565b50600e60008373ffffffffffffffffffffffffffffffffffffffff1673ffffffffffffffffffffffffffffffffffffffff1681526020019081526020016000208054806124c0576124bf6144bd565b5b60019003818190600052602060002001600090559055505050565b8173ffffffffffffffffffffffffffffffffffffffff168373ffffffffffffffffffffffffffffffffffffffff1603612549576040517f08c379a0000000000000000000000000000000000000000000000000000000008152600401612540906146ee565b60405180910390fd5b80600560008573ffffffffffffffffffffffffffffffffffffffff1673ffffffffffffffffffffffffffffffffffffffff16815260200190815260200160002060008473ffffffffffffffffffffffffffffffffffffffff1673ffffffffffffffffffffffffffffffffffffffff16815260200190815260200160002060006101000a81548160ff0219169083151502179055508173ffffffffffffffffffffffffffffffffffffffff168373ffffffffffffffffffffffffffffffffffffffff167f17307eab39ab6107e8899845ad3d59bd9653f200f220920489ca2b5937696c318360405161263a9190613156565b60405180910390a3505050565b612652848484611ff3565b61265e848484846127f5565b61269d576040517f08c379a000000000000000000000000000000000000000000000000000000000815260040161269490614780565b60405180910390fd5b50505050565b60007f80ac58cd000000000000000000000000000000000000000000000000000000007bffffffffffffffffffffffffffffffffffffffffffffffffffffffff1916827bffffffffffffffffffffffffffffffffffffffffffffffffffffffff1916148061276e57507f5b5e139f000000000000000000000000000000000000000000000000000000007bffffffffffffffffffffffffffffffffffffffffffffffffffffffff1916827bffffffffffffffffffffffffffffffffffffffffffffffffffffffff1916145b8061277e575061277d8261297c565b5b9050919050565b6127908383836129e6565b505050565b505050565b6127a48383612af8565b6127b160008484846127f5565b6127f0576040517f08c379a00000000000000000000000000000000000000000000000000000000081526004016127e790614780565b60405180910390fd5b505050565b60006128168473ffffffffffffffffffffffffffffffffffffffff16612cd1565b1561296f578373ffffffffffffffffffffffffffffffffffffffff1663150b7a0261283f611e54565b8786866040518563ffffffff1660e01b815260040161286194939291906147f5565b6020604051808303816000875af192505050801561289d57506040513d601f19601f8201168201806040525081019061289a9190614856565b60015b61291f573d80600081146128cd576040519150601f19603f3d011682016040523d82523d6000602084013e6128d2565b606091505b506000815103612917576040517f08c379a000000000000000000000000000000000000000000000000000000000815260040161290e90614780565b60405180910390fd5b805181602001fd5b63150b7a0260e01b7bffffffffffffffffffffffffffffffffffffffffffffffffffffffff1916817bffffffffffffffffffffffffffffffffffffffffffffffffffffffff191614915050612974565b600190505b949350505050565b60007f01ffc9a7000000000000000000000000000000000000000000000000000000007bffffffffffffffffffffffffffffffffffffffffffffffffffffffff1916827bffffffffffffffffffffffffffffffffffffffffffffffffffffffff1916149050919050565b6129f1838383612cf4565b600073ffffffffffffffffffffffffffffffffffffffff168373ffffffffffffffffffffffffffffffffffffffff1603612a3357612a2e81612cf9565b612a72565b8173ffffffffffffffffffffffffffffffffffffffff168373ffffffffffffffffffffffffffffffffffffffff1614612a7157612a708382612d42565b5b5b600073ffffffffffffffffffffffffffffffffffffffff168273ffffffffffffffffffffffffffffffffffffffff1603612ab457612aaf81612eaf565b612af3565b8273ffffffffffffffffffffffffffffffffffffffff168273ffffffffffffffffffffffffffffffffffffffff1614612af257612af18282612f80565b5b5b505050565b600073ffffffffffffffffffffffffffffffffffffffff168273ffffffffffffffffffffffffffffffffffffffff1603612b67576040517f08c379a0000000000000000000000000000000000000000000000000000000008152600401612b5e906148cf565b60405180910390fd5b612b7081611de8565b15612bb0576040517f08c379a0000000000000000000000000000000000000000000000000000000008152600401612ba79061493b565b60405180910390fd5b612bbc60008383612785565b6001600360008473ffffffffffffffffffffffffffffffffffffffff1673ffffffffffffffffffffffffffffffffffffffff1681526020019081526020016000206000828254612c0c91906140f9565b92505081905550816002600083815260200190815260200160002060006101000a81548173ffffffffffffffffffffffffffffffffffffffff021916908373ffffffffffffffffffffffffffffffffffffffff160217905550808273ffffffffffffffffffffffffffffffffffffffff16600073ffffffffffffffffffffffffffffffffffffffff167fddf252ad1be2c89b69c2b068fc378daa952ba7f163c4a11628f55a4df523b3ef60405160405180910390a4612ccd60008383612795565b5050565b6000808273ffffffffffffffffffffffffffffffffffffffff163b119050919050565b505050565b6008805490506009600083815260200190815260200160002081905550600881908060018154018082558091505060019003906000526020600020016000909190919091505550565b60006001612d4f84610fd6565b612d599190614489565b9050600060076000848152602001908152602001600020549050818114612e3e576000600660008673ffffffffffffffffffffffffffffffffffffffff1673ffffffffffffffffffffffffffffffffffffffff168152602001908152602001600020600084815260200190815260200160002054905080600660008773ffffffffffffffffffffffffffffffffffffffff1673ffffffffffffffffffffffffffffffffffffffff168152602001908152602001600020600084815260200190815260200160002081905550816007600083815260200190815260200160002081905550505b6007600084815260200190815260200160002060009055600660008573ffffffffffffffffffffffffffffffffffffffff1673ffffffffffffffffffffffffffffffffffffffff16815260200190815260200160002060008381526020019081526020016000206000905550505050565b60006001600880549050612ec39190614489565b9050600060096000848152602001908152602001600020549050600060088381548110612ef357612ef2613c33565b5b906000526020600020015490508060088381548110612f1557612f14613c33565b5b906000526020600020018190555081600960008381526020019081526020016000208190555060096000858152602001908152602001600020600090556008805480612f6457612f636144bd565b5b6001900381819060005260206000200160009055905550505050565b6000612f8b83610fd6565b905081600660008573ffffffffffffffffffffffffffffffffffffffff1673ffffffffffffffffffffffffffffffffffffffff168152602001908152602001600020600083815260200190815260200160002081905550806007600084815260200190815260200160002081905550505050565b82805461300b90613896565b90600052602060002090601f01602090048101928261302d5760008555613074565b82601f1061304657805160ff1916838001178555613074565b82800160010185558215613074579182015b82811115613073578251825591602001919060010190613058565b5b5090506130819190613085565b5090565b5b8082111561309e576000816000905550600101613086565b5090565b6000604051905090565b600080fd5b600080fd5b60007fffffffff0000000000000000000000000000000000000000000000000000000082169050919050565b6130eb816130b6565b81146130f657600080fd5b50565b600081359050613108816130e2565b92915050565b600060208284031215613124576131236130ac565b5b6000613132848285016130f9565b91505092915050565b60008115159050919050565b6131508161313b565b82525050565b600060208201905061316b6000830184613147565b92915050565b6000819050919050565b61318481613171565b811461318f57600080fd5b50565b6000813590506131a18161317b565b92915050565b600080604083850312156131be576131bd6130ac565b5b60006131cc85828601613192565b92505060206131dd85828601613192565b9150509250929050565b600081519050919050565b600082825260208201905092915050565b60005b83811015613221578082015181840152602081019050613206565b83811115613230576000848401525b50505050565b6000601f19601f8301169050919050565b6000613252826131e7565b61325c81856131f2565b935061326c818560208601613203565b61327581613236565b840191505092915050565b6000602082019050818103600083015261329a8184613247565b905092915050565b6000602082840312156132b8576132b76130ac565b5b60006132c684828501613192565b91505092915050565b600073ffffffffffffffffffffffffffffffffffffffff82169050919050565b60006132fa826132cf565b9050919050565b61330a816132ef565b82525050565b60006020820190506133256000830184613301565b92915050565b613334816132ef565b811461333f57600080fd5b50565b6000813590506133518161332b565b92915050565b6000806040838503121561336e5761336d6130ac565b5b600061337c85828601613342565b925050602061338d85828601613192565b9150509250929050565b6133a081613171565b82525050565b60006020820190506133bb6000830184613397565b92915050565b6000806000606084860312156133da576133d96130ac565b5b60006133e886828701613342565b93505060206133f986828701613342565b925050604061340a86828701613192565b9150509250925092565b600080fd5b600080fd5b7f4e487b7100000000000000000000000000000000000000000000000000000000600052604160045260246000fd5b61345682613236565b810181811067ffffffffffffffff821117156134755761347461341e565b5b80604052505050565b60006134886130a2565b9050613494828261344d565b919050565b600067ffffffffffffffff8211156134b4576134b361341e565b5b6134bd82613236565b9050602081019050919050565b82818337600083830152505050565b60006134ec6134e784613499565b61347e565b90508281526020810184848401111561350857613507613419565b5b6135138482856134ca565b509392505050565b600082601f8301126135305761352f613414565b5b81356135408482602086016134d9565b91505092915050565b60006020828403121561355f5761355e6130ac565b5b600082013567ffffffffffffffff81111561357d5761357c6130b1565b5b6135898482850161351b565b91505092915050565b6000602082840312156135a8576135a76130ac565b5b60006135b684828501613342565b91505092915050565b600060c0820190506135d46000830189613397565b6135e16020830188613397565b6135ee6040830187613301565b6135fb6060830186613397565b6136086080830185613147565b61361560a0830184613147565b979650505050505050565b6136298161313b565b811461363457600080fd5b50565b60008135905061364681613620565b92915050565b60008060408385031215613663576136626130ac565b5b600061367185828601613342565b925050602061368285828601613637565b9150509250929050565b600067ffffffffffffffff8211156136a7576136a661341e565b5b6136b082613236565b9050602081019050919050565b60006136d06136cb8461368c565b61347e565b9050828152602081018484840111156136ec576136eb613419565b5b6136f78482856134ca565b509392505050565b600082601f83011261371457613713613414565b5b81356137248482602086016136bd565b91505092915050565b60008060008060808587031215613747576137466130ac565b5b600061375587828801613342565b945050602061376687828801613342565b935050604061377787828801613192565b925050606085013567ffffffffffffffff811115613798576137976130b1565b5b6137a4878288016136ff565b91505092959194509250565b600080604083850312156137c7576137c66130ac565b5b60006137d585828601613342565b92505060206137e685828601613342565b9150509250929050565b7f4e487b7100000000000000000000000000000000000000000000000000000000600052601160045260246000fd5b600061382a82613171565b91507fffffffffffffffffffffffffffffffffffffffffffffffffffffffffffffffff820361385c5761385b6137f0565b5b600182019050919050565b7f4e487b7100000000000000000000000000000000000000000000000000000000600052602260045260246000fd5b600060028204905060018216806138ae57607f821691505b6020821081036138c1576138c0613867565b5b50919050565b7f4552433732313a20617070726f76656420717565727920666f72206e6f6e657860008201527f697374656e7420746f6b656e0000000000000000000000000000000000000000602082015250565b6000613923602c836131f2565b915061392e826138c7565b604082019050919050565b6000602082019050818103600083015261395281613916565b9050919050565b7f4552433732313a20617070726f76616c20746f2063757272656e74206f776e6560008201527f7200000000000000000000000000000000000000000000000000000000000000602082015250565b60006139b56021836131f2565b91506139c082613959565b604082019050919050565b600060208201905081810360008301526139e4816139a8565b9050919050565b7f4552433732313a20617070726f76652063616c6c6572206973206e6f74206f7760008201527f6e6572206e6f7220617070726f76656420666f7220616c6c0000000000000000602082015250565b6000613a476038836131f2565b9150613a52826139eb565b604082019050919050565b60006020820190508181036000830152613a7681613a3a565b9050919050565b7f4552433732313a207472616e736665722063616c6c6572206973206e6f74206f60008201527f776e6572206e6f7220617070726f766564000000000000000000000000000000602082015250565b6000613ad96031836131f2565b9150613ae482613a7d565b604082019050919050565b60006020820190508181036000830152613b0881613acc565b9050919050565b7f455243373231456e756d657261626c653a206f776e657220696e646578206f7560008201527f74206f6620626f756e6473000000000000000000000000000000000000000000602082015250565b6000613b6b602b836131f2565b9150613b7682613b0f565b604082019050919050565b60006020820190508181036000830152613b9a81613b5e565b9050919050565b7f455243373231456e756d657261626c653a20676c6f62616c20696e646578206f60008201527f7574206f6620626f756e64730000000000000000000000000000000000000000602082015250565b6000613bfd602c836131f2565b9150613c0882613ba1565b604082019050919050565b60006020820190508181036000830152613c2c81613bf0565b9050919050565b7f4e487b7100000000000000000000000000000000000000000000000000000000600052603260045260246000fd5b7f4552433732313a206f776e657220717565727920666f72206e6f6e657869737460008201527f656e7420746f6b656e0000000000000000000000000000000000000000000000602082015250565b6000613cbe6029836131f2565b9150613cc982613c62565b604082019050919050565b60006020820190508181036000830152613ced81613cb1565b9050919050565b600081905092915050565b6000613d0a826131e7565b613d148185613cf4565b9350613d24818560208601613203565b80840191505092915050565b6000613d3c8284613cff565b915081905092915050565b7f54686520746f6b656e205552492073686f756c6420626520756e697175650000600082015250565b6000613d7d601e836131f2565b9150613d8882613d47565b602082019050919050565b60006020820190508181036000830152613dac81613d70565b9050919050565b7f4552433732313a2062616c616e636520717565727920666f7220746865207a6560008201527f726f206164647265737300000000000000000000000000000000000000000000602082015250565b6000613e0f602a836131f2565b9150613e1a82613db3565b604082019050919050565b60006020820190508181036000830152613e3e81613e02565b9050919050565b7f546865206f66666572206d757374206578697374000000000000000000000000600082015250565b6000613e7b6014836131f2565b9150613e8682613e45565b602082019050919050565b60006020820190508181036000830152613eaa81613e6e565b9050919050565b7f546865206f776e6572206f6620746865206f666665722063616e6e6f7420666960008201527f6c6c206974000000000000000000000000000000000000000000000000000000602082015250565b6000613f0d6025836131f2565b9150613f1882613eb1565b604082019050919050565b60006020820190508181036000830152613f3c81613f00565b9050919050565b7f416e206f666665722063616e6e6f742062652066756c66696c6c65642074776960008201527f6365000000000000000000000000000000000000000000000000000000000000602082015250565b6000613f9f6022836131f2565b9150613faa82613f43565b604082019050919050565b60006020820190508181036000830152613fce81613f92565b9050919050565b7f412063616e63656c6c6564206f666665722063616e6e6f742062652066756c6660008201527f696c6c6564000000000000000000000000000000000000000000000000000000602082015250565b60006140316025836131f2565b915061403c82613fd5565b604082019050919050565b6000602082019050818103600083015261406081614024565b9050919050565b7f5468652045544820616d6f756e742073686f756c64206d61746368207769746860008201527f20746865204e4654205072696365000000000000000000000000000000000000602082015250565b60006140c3602e836131f2565b91506140ce82614067565b604082019050919050565b600060208201905081810360008301526140f2816140b6565b9050919050565b600061410482613171565b915061410f83613171565b9250827fffffffffffffffffffffffffffffffffffffffffffffffffffffffffffffffff03821115614144576141436137f0565b5b828201905092915050565b60006060820190506141646000830186613397565b6141716020830185613397565b61417e6040830184613301565b949350505050565b7f54686973207573657220686173206e6f2066756e647320746f20626520636c6160008201527f696d656400000000000000000000000000000000000000000000000000000000602082015250565b60006141e26024836131f2565b91506141ed82614186565b604082019050919050565b60006020820190508181036000830152614211816141d5565b9050919050565b600060408201905061422d6000830185613301565b61423a6020830184613397565b9392505050565b7f4552433732314d657461646174613a2055524920717565727920666f72206e6f60008201527f6e6578697374656e7420746f6b656e0000000000000000000000000000000000602082015250565b600061429d602f836131f2565b91506142a882614241565b604082019050919050565b600060208201905081810360008301526142cc81614290565b9050919050565b7f546865206f666665722063616e206f6e6c792062652063616e63656c6564206260008201527f7920746865206f776e6572000000000000000000000000000000000000000000602082015250565b600061432f602b836131f2565b915061433a826142d3565b604082019050919050565b6000602082019050818103600083015261435e81614322565b9050919050565b7f412066756c66696c6c6564206f666665722063616e6e6f742062652063616e6360008201527f656c6c6564000000000000000000000000000000000000000000000000000000602082015250565b60006143c16025836131f2565b91506143cc82614365565b604082019050919050565b600060208201905081810360008301526143f0816143b4565b9050919050565b7f416e206f666665722063616e6e6f742062652063616e63656c6c65642074776960008201527f6365000000000000000000000000000000000000000000000000000000000000602082015250565b60006144536022836131f2565b915061445e826143f7565b604082019050919050565b6000602082019050818103600083015261448281614446565b9050919050565b600061449482613171565b915061449f83613171565b9250828210156144b2576144b16137f0565b5b828203905092915050565b7f4e487b7100000000000000000000000000000000000000000000000000000000600052603160045260246000fd5b7f4552433732313a206f70657261746f7220717565727920666f72206e6f6e657860008201527f697374656e7420746f6b656e0000000000000000000000000000000000000000602082015250565b6000614548602c836131f2565b9150614553826144ec565b604082019050919050565b600060208201905081810360008301526145778161453b565b9050919050565b7f4552433732313a207472616e736665722066726f6d20696e636f72726563742060008201527f6f776e6572000000000000000000000000000000000000000000000000000000602082015250565b60006145da6025836131f2565b91506145e58261457e565b604082019050919050565b60006020820190508181036000830152614609816145cd565b9050919050565b7f4552433732313a207472616e7366657220746f20746865207a65726f2061646460008201527f7265737300000000000000000000000000000000000000000000000000000000602082015250565b600061466c6024836131f2565b915061467782614610565b604082019050919050565b6000602082019050818103600083015261469b8161465f565b9050919050565b7f4552433732313a20617070726f766520746f2063616c6c657200000000000000600082015250565b60006146d86019836131f2565b91506146e3826146a2565b602082019050919050565b60006020820190508181036000830152614707816146cb565b9050919050565b7f4552433732313a207472616e7366657220746f206e6f6e20455243373231526560008201527f63656976657220696d706c656d656e7465720000000000000000000000000000602082015250565b600061476a6032836131f2565b91506147758261470e565b604082019050919050565b600060208201905081810360008301526147998161475d565b9050919050565b600081519050919050565b600082825260208201905092915050565b60006147c7826147a0565b6147d181856147ab565b93506147e1818560208601613203565b6147ea81613236565b840191505092915050565b600060808201905061480a6000830187613301565b6148176020830186613301565b6148246040830185613397565b818103606083015261483681846147bc565b905095945050505050565b600081519050614850816130e2565b92915050565b60006020828403121561486c5761486b6130ac565b5b600061487a84828501614841565b91505092915050565b7f4552433732313a206d696e7420746f20746865207a65726f2061646472657373600082015250565b60006148b96020836131f2565b91506148c482614883565b602082019050919050565b600060208201905081810360008301526148e8816148ac565b9050919050565b7f4552433732313a20746f6b656e20616c7265616479206d696e74656400000000600082015250565b6000614925601c836131f2565b9150614930826148ef565b602082019050919050565b6000602082019050818103600083015261495481614918565b905091905056fea264697066735822122091ab5859f7b3c1ea80849e47cd8a5819b73e697fd19195a106c970d1ac62d31a64736f6c634300080e0033",
  "immutableReferences": {},
  "source": "// SPDX-License-Identifier: MIT\r\npragma solidity ^0.8.0;\r\n\r\nimport \"@openzeppelin/contracts/token/ERC721/ERC721.sol\";\r\nimport \"@openzeppelin/contracts/token/ERC721/extensions/ERC721Enumerable.sol\";\r\n\r\ncontract NFTSinsu is ERC721, ERC721Enumerable {\r\n  string[] public tokenURIs;\r\n  mapping(string => bool) _tokenURIExists;\r\n  mapping(uint => string) _tokenIdToTokenURI;\r\n  mapping(address=>uint[]) public _userToken;\r\n  mapping(address=>uint[]) public _userTokenoffer;\r\n\r\n  uint public offerCount;\r\n  mapping (uint => _Offer) public offers;\r\n  mapping (address => uint) public userFunds;\r\n\r\n  function _userToken_array(uint tokenid ,address myaddress) private{\r\n      uint j=0;\r\n      while(j<_userToken[myaddress].length){\r\n          if(_userToken[myaddress][j]==tokenid){\r\n              break;\r\n          }\r\n          j++;\r\n      }\r\n      for(uint i=j; i<_userToken[myaddress].length-1;i++){\r\n          _userToken[myaddress][i]=_userToken[myaddress][i+1];\r\n      }\r\n      _userToken[myaddress].pop();\r\n  }\r\n  function _userTokenoffer_array(uint tokenid ,address myaddress) private{\r\n      uint j=0;\r\n      while(j<_userTokenoffer[myaddress].length){\r\n          if(_userTokenoffer[myaddress][j]==tokenid){\r\n              break;\r\n          }\r\n          j++;\r\n      }\r\n      for(uint i=j; i<_userTokenoffer[myaddress].length-1;i++){\r\n          _userTokenoffer[myaddress][i]=_userTokenoffer[myaddress][i+1];\r\n      }\r\n      _userTokenoffer[myaddress].pop();\r\n  }\r\n  \r\n\r\n  struct _Offer {\r\n    uint offerId;\r\n    uint id;\r\n    address user;\r\n    uint price;\r\n    bool fulfilled;\r\n    bool cancelled;\r\n  }\r\n  event Offer(\r\n    uint offerId,\r\n    uint id,\r\n    address user,\r\n    uint price,\r\n    bool fulfilled,\r\n    bool cancelled\r\n  );\r\n\r\n  event OfferFilled(uint offerId, uint id, address newOwner);\r\n  event OfferCancelled(uint offerId, uint id, address owner);\r\n  event ClaimFunds(address user, uint amount);\r\n\r\n  constructor() \r\n    ERC721(\"sinsu Collection\", \"SINSU\") \r\n  {\r\n  }\r\n\r\n  function _beforeTokenTransfer(address from, address to, uint256 tokenId) internal override(ERC721, ERC721Enumerable) {\r\n    super._beforeTokenTransfer(from, to, tokenId);\r\n  }\r\n\r\n  function supportsInterface(bytes4 interfaceId) public view override(ERC721, ERC721Enumerable) returns (bool) {\r\n    return super.supportsInterface(interfaceId);\r\n  }\r\n\r\n  function tokenURI(uint256 tokenId) public override view returns (string memory) {\r\n    require(_exists(tokenId), 'ERC721Metadata: URI query for nonexistent token');\r\n    return _tokenIdToTokenURI[tokenId];\r\n  }\r\n\r\n\r\n\r\n  function safeMint(string memory _tokenURI) public {\r\n    require(!_tokenURIExists[_tokenURI], 'The token URI should be unique');\r\n    tokenURIs.push(_tokenURI);    \r\n    uint _id = tokenURIs.length;\r\n    _tokenIdToTokenURI[_id] = _tokenURI;\r\n    _safeMint(msg.sender, _id);\r\n    _tokenURIExists[_tokenURI] = true;\r\n    _userToken[msg.sender].push(_id);\r\n  }\r\n\r\n  function makeOffer(uint _id, uint _price) public {\r\n    transferFrom(msg.sender, address(this), _id);\r\n    offerCount ++;\r\n    offers[offerCount] = _Offer(offerCount, _id, msg.sender, _price, false, false);\r\n    _userTokenoffer[msg.sender].push(_id);\r\n    _userToken_array(_id, msg.sender);\r\n    emit Offer(offerCount, _id, msg.sender, _price, false, false);\r\n  }\r\n\r\n  function fillOffer(uint _offerId) public payable {\r\n    _Offer storage _offer = offers[_offerId];\r\n    require(_offer.offerId == _offerId, 'The offer must exist');\r\n    require(_offer.user != msg.sender, 'The owner of the offer cannot fill it');\r\n    require(!_offer.fulfilled, 'An offer cannot be fulfilled twice');\r\n    require(!_offer.cancelled, 'A cancelled offer cannot be fulfilled');\r\n    require(msg.value == _offer.price, 'The ETH amount should match with the NFT Price');\r\n    transferFrom(address(this), msg.sender, _offer.id);\r\n    _offer.fulfilled = true;\r\n    userFunds[_offer.user] += msg.value;\r\n    _userTokenoffer_array(_offer.offerId, _offer.user);\r\n    _userToken[msg.sender].push(_offer.offerId);\r\n    \r\n    emit OfferFilled(_offerId, _offer.id, msg.sender);\r\n  }\r\n\r\n  function cancelOffer(uint _offerId) public {\r\n    _Offer storage _offer = offers[_offerId];\r\n    require(_offer.offerId == _offerId, 'The offer must exist');\r\n    require(_offer.user == msg.sender, 'The offer can only be canceled by the owner');\r\n    require(_offer.fulfilled == false, 'A fulfilled offer cannot be cancelled');\r\n    require(_offer.cancelled == false, 'An offer cannot be cancelled twice');\r\n    transferFrom(address(this), msg.sender, _offer.id);\r\n    _offer.cancelled = true;\r\n    emit OfferCancelled(_offerId, _offer.id, msg.sender);\r\n  }\r\n\r\n  function claimFunds() public {\r\n    require(userFunds[msg.sender] > 0, 'This user has no funds to be claimed');\r\n    payable(msg.sender).transfer(userFunds[msg.sender]);\r\n    emit ClaimFunds(msg.sender, userFunds[msg.sender]);\r\n    userFunds[msg.sender] = 0;    \r\n  }\r\n\r\n  // Fallback: reverts if Ether is sent to this smart-contract by mistake\r\n  fallback () external {\r\n    revert();\r\n  }\r\n\r\n\r\n\r\n}",
  "sourcePath": "C:\\sinsu\\nft_react\\nuron-nextjs\\truffle\\contracts\\NFTSinsu.sol",
  "compiler": {
    "name": "solc",
    "version": "0.8.14+commit.80d49f37.Emscripten.clang"
  },
  "schemaVersion": "3.4.7",
  "updatedAt": "2022-06-04T07:29:23.728Z",
  "devdoc": {
    "kind": "dev",
    "methods": {
      "approve(address,uint256)": {
        "details": "See {IERC721-approve}."
      },
      "balanceOf(address)": {
        "details": "See {IERC721-balanceOf}."
      },
      "getApproved(uint256)": {
        "details": "See {IERC721-getApproved}."
      },
      "isApprovedForAll(address,address)": {
        "details": "See {IERC721-isApprovedForAll}."
      },
      "name()": {
        "details": "See {IERC721Metadata-name}."
      },
      "ownerOf(uint256)": {
        "details": "See {IERC721-ownerOf}."
      },
      "safeTransferFrom(address,address,uint256)": {
        "details": "See {IERC721-safeTransferFrom}."
      },
      "safeTransferFrom(address,address,uint256,bytes)": {
        "details": "See {IERC721-safeTransferFrom}."
      },
      "setApprovalForAll(address,bool)": {
        "details": "See {IERC721-setApprovalForAll}."
      },
      "symbol()": {
        "details": "See {IERC721Metadata-symbol}."
      },
      "tokenByIndex(uint256)": {
        "details": "See {IERC721Enumerable-tokenByIndex}."
      },
      "tokenOfOwnerByIndex(address,uint256)": {
        "details": "See {IERC721Enumerable-tokenOfOwnerByIndex}."
      },
      "tokenURI(uint256)": {
        "details": "See {IERC721Metadata-tokenURI}."
      },
      "totalSupply()": {
        "details": "See {IERC721Enumerable-totalSupply}."
      },
      "transferFrom(address,address,uint256)": {
        "details": "See {IERC721-transferFrom}."
      }
    },
    "version": 1
  },
  "userdoc": {
    "kind": "user",
    "methods": {},
    "version": 1
  }
}